Component: ARM Compiler 5.06 update 6 (build 750) Tool: armlink [4d35ed]

==============================================================================

Section Cross References

    startup_stm32f407xx.o(RESET) refers to startup_stm32f407xx.o(STACK) for __initial_sp
    startup_stm32f407xx.o(RESET) refers to startup_stm32f407xx.o(.text) for Reset_Handler
    startup_stm32f407xx.o(RESET) refers to stm32f4xx_it.o(i.NMI_Handler) for NMI_Handler
    startup_stm32f407xx.o(RESET) refers to stm32f4xx_it.o(i.HardFault_Handler) for HardFault_Handler
    startup_stm32f407xx.o(RESET) refers to stm32f4xx_it.o(i.MemManage_Handler) for MemManage_Handler
    startup_stm32f407xx.o(RESET) refers to stm32f4xx_it.o(i.BusFault_Handler) for BusFault_Handler
    startup_stm32f407xx.o(RESET) refers to stm32f4xx_it.o(i.UsageFault_Handler) for UsageFault_Handler
    startup_stm32f407xx.o(RESET) refers to stm32f4xx_it.o(i.SVC_Handler) for SVC_Handler
    startup_stm32f407xx.o(RESET) refers to stm32f4xx_it.o(i.DebugMon_Handler) for DebugMon_Handler
    startup_stm32f407xx.o(RESET) refers to stm32f4xx_it.o(i.PendSV_Handler) for PendSV_Handler
    startup_stm32f407xx.o(RESET) refers to stm32f4xx_it.o(i.SysTick_Handler) for SysTick_Handler
    startup_stm32f407xx.o(RESET) refers to stm32f4xx_it.o(i.UART4_IRQHandler) for UART4_IRQHandler
    startup_stm32f407xx.o(.text) refers to system_stm32f4xx.o(i.SystemInit) for SystemInit
    startup_stm32f407xx.o(.text) refers to entry.o(.ARM.Collect$$$$00000000) for __main
    main.o(i.main) refers to edusat_system.o(i.EDUSAT_Init) for EDUSAT_Init
    main.o(i.main) refers to strlen.o(.text) for strlen
    main.o(i.main) refers to edusat_system.o(i.Blink) for Blink
    main.o(i.main) refers to strncmp.o(.text) for strncmp
==============================================================================

Removing Unused input sections from the image.

    Removing startup_stm32f407xx.o(HEAP), (512 bytes).
    Removing main.o(.rev16_text), (4 bytes).
    Removing main.o(.revsh_text), (4 bytes).
    Removing main.o(.rrx_text), (6 bytes).
    Removing user_diskio.o(.rev16_text), (4 bytes).
    Removing user_diskio.o(.revsh_text), (4 bytes).
    Removing user_diskio.o(.rrx_text), (6 bytes).
    Removing fatfs.o(.bss), (4152 bytes).
    Removing fatfs.o(.bss), (4144 bytes).
    Removing stm32f4xx_it.o(.rev16_text), (4 bytes).
    Removing stm32f4xx_it.o(.revsh_text), (4 bytes).
    Removing stm32f4xx_it.o(.rrx_text), (6 bytes).
    Removing stm32f4xx_hal_msp.o(.rev16_text), (4 bytes).
    Removing stm32f4xx_hal_msp.o(.revsh_text), (4 bytes).
    Removing stm32f4xx_hal_msp.o(.rrx_text), (6 bytes).
    Removing stm32f4xx_hal_msp.o(i.HAL_I2C_MspDeInit), (88 bytes).
    Removing stm32f4xx_hal_msp.o(i.HAL_SPI_MspDeInit), (92 bytes).
    Removing stm32f4xx_hal_msp.o(i.HAL_UART_MspDeInit), (52 bytes).
==============================================================================

Image Symbol Table

    Local Symbols

    Symbol Name                              Value     Ov Type        Size  Object(Section)

    ../Drivers/STM32F4xx_HAL_Driver/Src/stm32f4xx_hal.c 0x00000000   Number         0  stm32f4xx_hal.o ABSOLUTE
    ../Drivers/STM32F4xx_HAL_Driver/Src/stm32f4xx_hal_cortex.c 0x00000000   Number         0  stm32f4xx_hal_cortex.o ABSOLUTE
    ../Drivers/STM32F4xx_HAL_Driver/Src/stm32f4xx_hal_dma.c 0x00000000   Number         0  stm32f4xx_hal_dma.o ABSOLUTE
    ../Drivers/STM32F4xx_HAL_Driver/Src/stm32f4xx_hal_dma_ex.c 0x00000000   Number         0  stm32f4xx_hal_dma_ex.o ABSOLUTE
    ../Drivers/STM32F4xx_HAL_Driver/Src/stm32f4xx_hal_exti.c 0x00000000   Number         0  stm32f4xx_hal_exti.o ABSOLUTE
    ../Drivers/STM32F4xx_HAL_Driver/Src/stm32f4xx_hal_flash.c 0x00000000   Number         0  stm32f4xx_hal_flash.o ABSOLUTE
    ../Drivers/STM32F4xx_HAL_Driver/Src/stm32f4xx_hal_flash_ex.c 0x00000000   Number         0  stm32f4xx_hal_flash_ex.o ABSOLUTE
    ../Drivers/STM32F4xx_HAL_Driver/Src/stm32f4xx_hal_flash_ramfunc.c 0x00000000   Number         0  stm32f4xx_hal_flash_ramfunc.o ABSOLUTE
    ../Drivers/STM32F4xx_HAL_Driver/Src/stm32f4xx_hal_gpio.c 0x00000000   Number         0  stm32f4xx_hal_gpio.o ABSOLUTE
    ../Drivers/STM32F4xx_HAL_Driver/Src/stm32f4xx_hal_i2c.c 0x00000000   Number         0  stm32f4xx_hal_i2c.o ABSOLUTE
    ../Drivers/STM32F4xx_HAL_Driver/Src/stm32f4xx_hal_i2c_ex.c 0x00000000   Number         0  stm32f4xx_hal_i2c_ex.o ABSOLUTE
    ../Drivers/STM32F4xx_HAL_Driver/Src/stm32f4xx_hal_pwr.c 0x00000000   Number         0  stm32f4xx_hal_pwr.o ABSOLUTE
    ../Drivers/STM32F4xx_HAL_Driver/Src/stm32f4xx_hal_pwr_ex.c 0x00000000   Number         0  stm32f4xx_hal_pwr_ex.o ABSOLUTE
    ../Drivers/STM32F4xx_HAL_Driver/Src/stm32f4xx_hal_rcc.c 0x00000000   Number         0  stm32f4xx_hal_rcc.o ABSOLUTE
    ../Drivers/STM32F4xx_HAL_Driver/Src/stm32f4xx_hal_rcc_ex.c 0x00000000   Number         0  stm32f4xx_hal_rcc_ex.o ABSOLUTE
    ../Drivers/STM32F4xx_HAL_Driver/Src/stm32f4xx_hal_spi.c 0x00000000   Number         0  stm32f4xx_hal_spi.o ABSOLUTE
    ../Drivers/STM32F4xx_HAL_Driver/Src/stm32f4xx_hal_tim.c 0x00000000   Number         0  stm32f4xx_hal_tim.o ABSOLUTE
    ../Drivers/STM32F4xx_HAL_Driver/Src/stm32f4xx_hal_tim_ex.c 0x00000000   Number         0  stm32f4xx_hal_tim_ex.o ABSOLUTE
    ../Drivers/STM32F4xx_HAL_Driver/Src/stm32f4xx_hal_uart.c 0x00000000   Number         0  stm32f4xx_hal_uart.o ABSOLUTE
    ../Middlewares/Third_Party/FatFs/src/diskio.c 0x00000000   Number         0  diskio.o ABSOLUTE
    ../Middlewares/Third_Party/FatFs/src/ff.c 0x00000000   Number         0  ff.o ABSOLUTE
    ../Middlewares/Third_Party/FatFs/src/ff_gen_drv.c 0x00000000   Number         0  ff_gen_drv.o ABSOLUTE
    ../Middlewares/Third_Party/FatFs/src/option/ccsbcs.c 0x00000000   Number         0  ccsbcs.o ABSOLUTE
    ../Middlewares/Third_Party/FatFs/src/option/syscall.c 0x00000000   Number         0  syscall.o ABSOLUTE
    ../Src/fatfs.c                           0x00000000   Number         0  fatfs.o ABSOLUTE
    ../Src/main.c                            0x00000000   Number         0  main.o ABSOLUTE
    ../Src/stm32f4xx_hal_msp.c               0x00000000   Number         0  stm32f4xx_hal_msp.o ABSOLUTE
    ../Src/stm32f4xx_it.c                    0x00000000   Number         0  stm32f4xx_it.o ABSOLUTE
    ../Src/system_stm32f4xx.c                0x00000000   Number         0  system_stm32f4xx.o ABSOLUTE
    ../Src/user_diskio.c                     0x00000000   Number         0  user_diskio.o ABSOLUTE
    ../clib/microlib/division.c              0x00000000   Number         0  uidiv.o ABSOLUTE
    ../clib/microlib/division.c              0x00000000   Number         0  uldiv.o ABSOLUTE
    ../clib/microlib/errno.c                 0x00000000   Number         0  errno.o ABSOLUTE
    ../clib/microlib/init/entry.s            0x00000000   Number         0  entry2.o ABSOLUTE
    ../clib/microlib/init/entry.s            0x00000000   Number         0  entry11b.o ABSOLUTE
    ../clib/microlib/init/entry.s            0x00000000   Number         0  entry.o ABSOLUTE
    ../clib/microlib/init/entry.s            0x00000000   Number         0  entry8b.o ABSOLUTE
    ../clib/microlib/init/entry.s            0x00000000   Number         0  entry11a.o ABSOLUTE
    ../clib/microlib/init/entry.s            0x00000000   Number         0  entry10b.o ABSOLUTE
    ../clib/microlib/init/entry.s            0x00000000   Number         0  entry10a.o ABSOLUTE
    ../clib/microlib/init/entry.s            0x00000000   Number         0  entry9b.o ABSOLUTE
    ../clib/microlib/init/entry.s            0x00000000   Number         0  entry9a.o ABSOLUTE
    ../clib/microlib/init/entry.s            0x00000000   Number         0  entry8a.o ABSOLUTE
    ../clib/microlib/init/entry.s            0x00000000   Number         0  entry7b.o ABSOLUTE
    ../clib/microlib/init/entry.s            0x00000000   Number         0  entry7a.o ABSOLUTE
    ../clib/microlib/init/entry.s            0x00000000   Number         0  entry5.o ABSOLUTE
    ../clib/microlib/longlong.c              0x00000000   Number         0  llushr.o ABSOLUTE
    ../clib/microlib/longlong.c              0x00000000   Number         0  llsshr.o ABSOLUTE
    ../clib/microlib/longlong.c              0x00000000   Number         0  llshl.o ABSOLUTE
    ../clib/microlib/printf/printf.c         0x00000000   Number         0  printf6.o ABSOLUTE
    ../clib/microlib/printf/printf.c         0x00000000   Number         0  printf1.o ABSOLUTE
    ../clib/microlib/printf/printf.c         0x00000000   Number         0  printf0.o ABSOLUTE
    ../clib/microlib/printf/printf.c         0x00000000   Number         0  printf2.o ABSOLUTE
    ../clib/microlib/printf/printf.c         0x00000000   Number         0  printf7.o ABSOLUTE
    ../clib/microlib/printf/printf.c         0x00000000   Number         0  printf3.o ABSOLUTE
    ../clib/microlib/printf/printf.c         0x00000000   Number         0  printf4.o ABSOLUTE
    ../clib/microlib/printf/printf.c         0x00000000   Number         0  printf8.o ABSOLUTE
    ../clib/microlib/printf/printf.c         0x00000000   Number         0  printfb.o ABSOLUTE
    ../clib/microlib/printf/printf.c         0x00000000   Number         0  printfa.o ABSOLUTE
    ../clib/microlib/printf/printf.c         0x00000000   Number         0  printf5.o ABSOLUTE
    ../clib/microlib/printf/stubs.s          0x00000000   Number         0  stubs.o ABSOLUTE
    ../clib/microlib/stdio/fputc.c           0x00000000   Number         0  fputc.o ABSOLUTE
    ../clib/microlib/stdio/semi.s            0x00000000   Number         0  semi.o ABSOLUTE
    ../clib/microlib/stdio/streams.c         0x00000000   Number         0  stdout.o ABSOLUTE
    ../clib/microlib/string/memset.c         0x00000000   Number         0  memseta.o ABSOLUTE
    ../clib/microlib/string/strcpy.c         0x00000000   Number         0  strcpy.o ABSOLUTE
    ../clib/microlib/string/strlen.c         0x00000000   Number         0  strlen.o ABSOLUTE
    ../clib/microlib/string/strncmp.c        0x00000000   Number         0  strncmp.o ABSOLUTE
    ../clib/microlib/stubs.s                 0x00000000   Number         0  iusesemip.o ABSOLUTE
    ../clib/microlib/stubs.s                 0x00000000   Number         0  iusefp.o ABSOLUTE
    ../fplib/microlib/d2f.c                  0x00000000   Number         0  d2f.o ABSOLUTE
    ../fplib/microlib/f2d.c                  0x00000000   Number         0  f2d.o ABSOLUTE
    ../fplib/microlib/fpadd.c                0x00000000   Number         0  dadd.o ABSOLUTE
    ../fplib/microlib/fpdiv.c                0x00000000   Number         0  ddiv.o ABSOLUTE
    ../fplib/microlib/fpepilogue.c           0x00000000   Number         0  fepilogue.o ABSOLUTE
    ../fplib/microlib/fpepilogue.c           0x00000000   Number         0  depilogue.o ABSOLUTE
    ../fplib/microlib/fpfix.c                0x00000000   Number         0  dfixui.o ABSOLUTE
    ../fplib/microlib/fpfix.c                0x00000000   Number         0  dfixul.o ABSOLUTE
    ../fplib/microlib/fpflt.c                0x00000000   Number         0  dfltui.o ABSOLUTE
    ../fplib/microlib/fpflt.c                0x00000000   Number         0  dflti.o ABSOLUTE
    ../fplib/microlib/fpmul.c                0x00000000   Number         0  dmul.o ABSOLUTE
    ../fplib/microlib/fpneg.c                0x00000000   Number         0  dneg.o ABSOLUTE
    ../fplib/microlib/fpscalb.c              0x00000000   Number         0  dscalb.o ABSOLUTE
    ../fplib/microlib/fpsqrt.c               0x00000000   Number         0  dsqrt.o ABSOLUTE
    ../mathlib/dunder.c                      0x00000000   Number         0  dunder.o ABSOLUTE
    ../mathlib/fabs.c                        0x00000000   Number         0  fabs.o ABSOLUTE
    ../mathlib/fpclassify.c                  0x00000000   Number         0  fpclassify.o ABSOLUTE
    ../mathlib/poly.c                        0x00000000   Number         0  poly.o ABSOLUTE
    ../mathlib/pow.c                         0x00000000   Number         0  pow_x.o ABSOLUTE
    ../mathlib/pow.c                         0x00000000   Number         0  pow.o ABSOLUTE
    ../mathlib/qnan.c                        0x00000000   Number         0  qnan.o ABSOLUTE
    ../mathlib/sqrt.c                        0x00000000   Number         0  sqrt.o ABSOLUTE
    ../mathlib/sqrt.c                        0x00000000   Number         0  sqrt_x.o ABSOLUTE
    ..\Drivers\STM32F4xx_HAL_Driver\Src\stm32f4xx_hal.c 0x00000000   Number         0  stm32f4xx_hal.o ABSOLUTE
    ..\Drivers\STM32F4xx_HAL_Driver\Src\stm32f4xx_hal_cortex.c 0x00000000   Number         0  stm32f4xx_hal_cortex.o ABSOLUTE
    ..\Drivers\STM32F4xx_HAL_Driver\Src\stm32f4xx_hal_dma.c 0x00000000   Number         0  stm32f4xx_hal_dma.o ABSOLUTE
    ..\Drivers\STM32F4xx_HAL_Driver\Src\stm32f4xx_hal_dma_ex.c 0x00000000   Number         0  stm32f4xx_hal_dma_ex.o ABSOLUTE
    ..\Drivers\STM32F4xx_HAL_Driver\Src\stm32f4xx_hal_exti.c 0x00000000   Number         0  stm32f4xx_hal_exti.o ABSOLUTE
    ..\Drivers\STM32F4xx_HAL_Driver\Src\stm32f4xx_hal_flash.c 0x00000000   Number         0  stm32f4xx_hal_flash.o ABSOLUTE
    ..\Drivers\STM32F4xx_HAL_Driver\Src\stm32f4xx_hal_flash_ex.c 0x00000000   Number         0  stm32f4xx_hal_flash_ex.o ABSOLUTE
    ..\Drivers\STM32F4xx_HAL_Driver\Src\stm32f4xx_hal_flash_ramfunc.c 0x00000000   Number         0  stm32f4xx_hal_flash_ramfunc.o ABSOLUTE
    ..\Drivers\STM32F4xx_HAL_Driver\Src\stm32f4xx_hal_gpio.c 0x00000000   Number         0  stm32f4xx_hal_gpio.o ABSOLUTE
    ..\Drivers\STM32F4xx_HAL_Driver\Src\stm32f4xx_hal_i2c.c 0x00000000   Number         0  stm32f4xx_hal_i2c.o ABSOLUTE
    ..\Drivers\STM32F4xx_HAL_Driver\Src\stm32f4xx_hal_i2c_ex.c 0x00000000   Number         0  stm32f4xx_hal_i2c_ex.o ABSOLUTE
    ..\Drivers\STM32F4xx_HAL_Driver\Src\stm32f4xx_hal_pwr.c 0x00000000   Number         0  stm32f4xx_hal_pwr.o ABSOLUTE
    ..\Drivers\STM32F4xx_HAL_Driver\Src\stm32f4xx_hal_pwr_ex.c 0x00000000   Number         0  stm32f4xx_hal_pwr_ex.o ABSOLUTE
    ..\Drivers\STM32F4xx_HAL_Driver\Src\stm32f4xx_hal_rcc.c 0x00000000   Number         0  stm32f4xx_hal_rcc.o ABSOLUTE
    ..\Drivers\STM32F4xx_HAL_Driver\Src\stm32f4xx_hal_rcc_ex.c 0x00000000   Number         0  stm32f4xx_hal_rcc_ex.o ABSOLUTE
    ..\Drivers\STM32F4xx_HAL_Driver\Src\stm32f4xx_hal_spi.c 0x00000000   Number         0  stm32f4xx_hal_spi.o ABSOLUTE
    ..\Drivers\STM32F4xx_HAL_Driver\Src\stm32f4xx_hal_tim.c 0x00000000   Number         0  stm32f4xx_hal_tim.o ABSOLUTE
    ..\Drivers\STM32F4xx_HAL_Driver\Src\stm32f4xx_hal_tim_ex.c 0x00000000   Number         0  stm32f4xx_hal_tim_ex.o ABSOLUTE
    ..\Drivers\STM32F4xx_HAL_Driver\Src\stm32f4xx_hal_uart.c 0x00000000   Number         0  stm32f4xx_hal_uart.o ABSOLUTE
    ..\Src\ADCS.c                            0x00000000   Number         0  adcs.o ABSOLUTE
    ..\Src\Arducam.c                         0x00000000   Number         0  arducam.o ABSOLUTE
    ..\Src\EDUSAT_SENSORS.c                  0x00000000   Number         0  edusat_sensors.o ABSOLUTE
    ..\Src\EDUSAT_SYSTEM.c                   0x00000000   Number         0  edusat_system.o ABSOLUTE
    ..\Src\EPS.c                             0x00000000   Number         0  eps.o ABSOLUTE
    ..\Src\HMC5883L.c                        0x00000000   Number         0  hmc5883l.o ABSOLUTE
    ..\Src\OV5642_Regs.c                     0x00000000   Number         0  ov5642_regs.o ABSOLUTE
    ..\Src\SDLibrary.c                       0x00000000   Number         0  sdlibrary.o ABSOLUTE
    ..\Src\bmp085.c                          0x00000000   Number         0  bmp085.o ABSOLUTE
    ..\Src\fatfs_sd.c                        0x00000000   Number         0  fatfs_sd.o ABSOLUTE
    ..\Src\main.c                            0x00000000   Number         0  main.o ABSOLUTE
    ..\Src\sd_hal_mpu6050.c                  0x00000000   Number         0  sd_hal_mpu6050.o ABSOLUTE
    ..\Src\stm32f4xx_hal_msp.c               0x00000000   Number         0  stm32f4xx_hal_msp.o ABSOLUTE
    ..\Src\stm32f4xx_it.c                    0x00000000   Number         0  stm32f4xx_it.o ABSOLUTE
    ..\Src\system_stm32f4xx.c                0x00000000   Number         0  system_stm32f4xx.o ABSOLUTE
    ..\Src\user_diskio.c                     0x00000000   Number         0  user_diskio.o ABSOLUTE
    ..\\Src\\ADCS.c                          0x00000000   Number         0  adcs.o ABSOLUTE
    ..\\Src\\Arducam.c                       0x00000000   Number         0  arducam.o ABSOLUTE
    ..\\Src\\EDUSAT_SENSORS.c                0x00000000   Number         0  edusat_sensors.o ABSOLUTE
    ..\\Src\\EDUSAT_SYSTEM.c                 0x00000000   Number         0  edusat_system.o ABSOLUTE
    ..\\Src\\EPS.c                           0x00000000   Number         0  eps.o ABSOLUTE
    ..\\Src\\HMC5883L.c                      0x00000000   Number         0  hmc5883l.o ABSOLUTE
    ..\\Src\\OV5642_Regs.c                   0x00000000   Number         0  ov5642_regs.o ABSOLUTE
    ..\\Src\\SDLibrary.c                     0x00000000   Number         0  sdlibrary.o ABSOLUTE
    ..\\Src\\bmp085.c                        0x00000000   Number         0  bmp085.o ABSOLUTE
    ..\\Src\\fatfs_sd.c                      0x00000000   Number         0  fatfs_sd.o ABSOLUTE
    ..\\Src\\sd_hal_mpu6050.c                0x00000000   Number         0  sd_hal_mpu6050.o ABSOLUTE
    cdcmple.s                                0x00000000   Number         0  cdcmple.o ABSOLUTE
    cdrcmple.s                               0x00000000   Number         0  cdrcmple.o ABSOLUTE
    dc.s                                     0x00000000   Number         0  dc.o ABSOLUTE
    handlers.s                               0x00000000   Number         0  handlers.o ABSOLUTE
    init.s                                   0x00000000   Number         0  init.o ABSOLUTE
    startup_stm32f407xx.s                    0x00000000   Number         0  startup_stm32f407xx.o ABSOLUTE
    RESET                                    0x08000000   Section      392  startup_stm32f407xx.o(RESET)
    .ARM.Collect$$$$00000000                 0x08000188   Section        0  entry.o(.ARM.Collect$$$$00000000)
    .ARM.Collect$$$$00000001                 0x08000188   Section        4  entry2.o(.ARM.Collect$$$$00000001)
    .ARM.Collect$$$$00000004                 0x0800018c   Section        4  entry5.o(.ARM.Collect$$$$00000004)
    .ARM.Collect$$$$00000008                 0x08000190   Section        0  entry7b.o(.ARM.Collect$$$$00000008)
    .ARM.Collect$$$$0000000A                 0x08000190   Section        0  entry8b.o(.ARM.Collect$$$$0000000A)
    .ARM.Collect$$$$0000000B                 0x08000190   Section        8  entry9a.o(.ARM.Collect$$$$0000000B)
    .ARM.Collect$$$$0000000D                 0x08000198   Section        0  entry10a.o(.ARM.Collect$$$$0000000D)
    .ARM.Collect$$$$0000000F                 0x08000198   Section        0  entry11a.o(.ARM.Collect$$$$0000000F)
    .ARM.Collect$$$$00002712                 0x08000198   Section        4  entry2.o(.ARM.Collect$$$$00002712)
    __lit__00000000                          0x08000198   Data           4  entry2.o(.ARM.Collect$$$$00002712)
    .text                                    0x0800019c   Section       36  startup_stm32f407xx.o(.text)
    $v0                                      0x0800019c   Number         0  startup_stm32f407xx.o(.text)
    .text                                    0x080001c0   Section        0  uldiv.o(.text)
    .text                                    0x08000222   Section        0  memseta.o(.text)
    .text                                    0x08000246   Section        0  strlen.o(.text)
    .text                                    0x08000254   Section        0  strcpy.o(.text)
    .text                                    0x08000266   Section        0  strncmp.o(.text)
    .text                                    0x08000284   Section        0  dadd.o(.text)
    .text                                    0x080003d2   Section        0  dmul.o(.text)
    .text                                    0x080004b6   Section        0  ddiv.o(.text)
    .text                                    0x08000594   Section        0  dflti.o(.text)
    .text                                    0x080005b6   Section        0  dfltui.o(.text)
    .text                                    0x080005d0   Section        0  dfixui.o(.text)
    .text                                    0x08000602   Section        0  f2d.o(.text)
    .text                                    0x08000628   Section       48  cdcmple.o(.text)
    .text                                    0x08000658   Section        0  d2f.o(.text)
    .text                                    0x08000690   Section        0  uidiv.o(.text)
    .text                                    0x080006bc   Section        0  llshl.o(.text)
    .text                                    0x080006da   Section        0  llushr.o(.text)
    .text                                    0x080006fa   Section        0  llsshr.o(.text)
    .text                                    0x0800071e   Section        0  fepilogue.o(.text)
    .text                                    0x0800071e   Section        0  iusefp.o(.text)
    .text                                    0x0800078c   Section        0  depilogue.o(.text)
    .text                                    0x08000846   Section        0  dscalb.o(.text)
    .text                                    0x08000874   Section        0  dfixul.o(.text)
    .text                                    0x080008a4   Section       48  cdrcmple.o(.text)
    .text                                    0x080008d4   Section       36  init.o(.text)
    .text                                    0x080008f8   Section        0  dsqrt.o(.text)
    i.ADCS_Reset                             0x0800099c   Section        0  adcs.o(i.ADCS_Reset)
    i.AcquireTelemetry                       0x080009d4   Section        0  edusat_system.o(i.AcquireTelemetry)
    i.ArduCam_Capture                        0x08000a2c   Section        0  arducam.o(i.ArduCam_Capture)
    i.ArduCam_Clear_FIFOFlag                 0x08000a68   Section        0  arducam.o(i.ArduCam_Clear_FIFOFlag)
    i.ArduCam_Enable_ManualExposureControl   0x08000a70   Section        0  arducam.o(i.ArduCam_Enable_ManualExposureControl)
    i.ArduCam_Flush_FIFO                     0x08000a7c   Section        0  arducam.o(i.ArduCam_Flush_FIFO)
    i.ArduCam_Get_ExposureTime               0x08000a84   Section        0  arducam.o(i.ArduCam_Get_ExposureTime)
    i.ArduCam_Init                           0x08000ad0   Section        0  arducam.o(i.ArduCam_Init)
    i.ArduCam_ReadRegister                   0x08000c68   Section        0  arducam.o(i.ArduCam_ReadRegister)
    i.ArduCam_Read_ArduchipVersion           0x08000c70   Section        0  arducam.o(i.ArduCam_Read_ArduchipVersion)
    i.ArduCam_Read_CapturedPhoto             0x08000c7c   Section        0  arducam.o(i.ArduCam_Read_CapturedPhoto)
    i.ArduCam_Read_DeviceID                  0x08000cf8   Section        0  arducam.o(i.ArduCam_Read_DeviceID)
    i.ArduCam_Read_FIFO                      0x08000d14   Section        0  arducam.o(i.ArduCam_Read_FIFO)
    i.ArduCam_Read_FIFOSize                  0x08000d64   Section        0  arducam.o(i.ArduCam_Read_FIFOSize)
    i.ArduCam_RegisterUpdate                 0x08000d96   Section        0  arducam.o(i.ArduCam_RegisterUpdate)
    i.ArduCam_SWReset                        0x08000e0c   Section        0  arducam.o(i.ArduCam_SWReset)
    i.ArduCam_Send_CapturedPhoto             0x08000e24   Section        0  arducam.o(i.ArduCam_Send_CapturedPhoto)
    i.ArduCam_Set_Brightness                 0x08000ef8   Section        0  arducam.o(i.ArduCam_Set_Brightness)
    i.ArduCam_Set_CaptureFrameNumber         0x08000fc2   Section        0  arducam.o(i.ArduCam_Set_CaptureFrameNumber)
    i.ArduCam_Set_ColorSaturation            0x08000fdc   Section        0  arducam.o(i.ArduCam_Set_ColorSaturation)
    i.ArduCam_Set_CompressQuality            0x080010e0   Section        0  arducam.o(i.ArduCam_Set_CompressQuality)
    i.ArduCam_Set_Contrast                   0x0800110c   Section        0  arducam.o(i.ArduCam_Set_Contrast)
    i.ArduCam_Set_ExposureLevel              0x0800127a   Section        0  arducam.o(i.ArduCam_Set_ExposureLevel)
    i.ArduCam_Set_Hue                        0x0800149c   Section        0  arducam.o(i.ArduCam_Set_Hue)
    i.ArduCam_Set_JPEGSize                   0x08001680   Section        0  arducam.o(i.ArduCam_Set_JPEGSize)
    i.ArduCam_Set_LightMode                  0x080016d4   Section        0  arducam.o(i.ArduCam_Set_LightMode)
    i.ArduCam_Set_MirrorAndFlip              0x08001908   Section        0  arducam.o(i.ArduCam_Set_MirrorAndFlip)
    i.ArduCam_Set_PCLKValue                  0x080019ca   Section        0  arducam.o(i.ArduCam_Set_PCLKValue)
    i.ArduCam_Set_Sharpness                  0x080019ee   Section        0  arducam.o(i.ArduCam_Set_Sharpness)
    i.ArduCam_Set_SpecialEffect              0x08001b0e   Section        0  arducam.o(i.ArduCam_Set_SpecialEffect)
    i.ArduCam_StartCapture                   0x08001bfc   Section        0  arducam.o(i.ArduCam_StartCapture)
    i.ArduCam_WriteRegister                  0x08001c04   Section        0  arducam.o(i.ArduCam_WriteRegister)
    i.ArduChip_EnterStandby                  0x08001c14   Section        0  arducam.o(i.ArduChip_EnterStandby)
    i.ArduChip_ExitStandby                   0x08001c30   Section        0  arducam.o(i.ArduChip_ExitStandby)
    i.Arducam_InitExposure                   0x08001c4c   Section        0  arducam.o(i.Arducam_InitExposure)
    i.Arducam_Set_ExposureValue              0x08001c80   Section        0  arducam.o(i.Arducam_Set_ExposureValue)
    i.Arducam_Set_MaxLines                   0x08001cd2   Section        0  arducam.o(i.Arducam_Set_MaxLines)
    i.BMP085Calibration                      0x08001d14   Section        0  bmp085.o(i.BMP085Calibration)
    i.BMP085calculatePressure                0x08001d8c   Section        0  bmp085.o(i.BMP085calculatePressure)
    i.BMP085calculateTemperature             0x08001e24   Section        0  bmp085.o(i.BMP085calculateTemperature)
    i.BMP085readCalibration                  0x08001e50   Section        0  bmp085.o(i.BMP085readCalibration)
    i.BMP085readUP                           0x08001eac   Section        0  bmp085.o(i.BMP085readUP)
    i.BMP085readUT                           0x08001f68   Section        0  bmp085.o(i.BMP085readUT)
    i.Blink                                  0x08001fac   Section        0  edusat_system.o(i.Blink)
    i.BusFault_Handler                       0x08001fcc   Section        0  stm32f4xx_it.o(i.BusFault_Handler)
    i.ConfigureHMC5883L                      0x08001fd0   Section        0  hmc5883l.o(i.ConfigureHMC5883L)
    i.DESELECT                               0x08002024   Section        0  fatfs_sd.o(i.DESELECT)
    DESELECT                                 0x08002025   Thumb Code    10  fatfs_sd.o(i.DESELECT)
    i.DebugMon_Handler                       0x08002034   Section        0  stm32f4xx_it.o(i.DebugMon_Handler)
    i.EDUSAT_Init                            0x08002038   Section        0  edusat_system.o(i.EDUSAT_Init)
    i.EPS_Reset                              0x080020bc   Section        0  eps.o(i.EPS_Reset)
    i.FATFS_LinkDriver                       0x080020f4   Section        0  ff_gen_drv.o(i.FATFS_LinkDriver)
    i.FATFS_LinkDriverEx                     0x080020fc   Section        0  ff_gen_drv.o(i.FATFS_LinkDriverEx)
    i.GetRW                                  0x0800213c   Section        0  adcs.o(i.GetRW)
    i.GetX                                   0x08002174   Section        0  hmc5883l.o(i.GetX)
    i.GetY                                   0x080021c0   Section        0  hmc5883l.o(i.GetY)
    i.GetZ                                   0x08002204   Section        0  hmc5883l.o(i.GetZ)
    i.HAL_DMA_Abort_IT                       0x08002248   Section        0  stm32f4xx_hal_dma.o(i.HAL_DMA_Abort_IT)
    i.HAL_Delay                              0x0800226c   Section        0  stm32f4xx_hal.o(i.HAL_Delay)
    i.HAL_GPIO_Init                          0x08002290   Section        0  stm32f4xx_hal_gpio.o(i.HAL_GPIO_Init)
    i.HAL_GPIO_TogglePin                     0x08002440   Section        0  stm32f4xx_hal_gpio.o(i.HAL_GPIO_TogglePin)
    i.HAL_GPIO_WritePin                      0x0800244e   Section        0  stm32f4xx_hal_gpio.o(i.HAL_GPIO_WritePin)
    i.HAL_GetTick                            0x08002458   Section        0  stm32f4xx_hal.o(i.HAL_GetTick)
    i.HAL_I2C_Init                           0x08002464   Section        0  stm32f4xx_hal_i2c.o(i.HAL_I2C_Init)
    i.HAL_I2C_IsDeviceReady                  0x080025d8   Section        0  stm32f4xx_hal_i2c.o(i.HAL_I2C_IsDeviceReady)
    i.HAL_I2C_Master_Receive                 0x08002730   Section        0  stm32f4xx_hal_i2c.o(i.HAL_I2C_Master_Receive)
    i.HAL_I2C_Master_Transmit                0x08002910   Section        0  stm32f4xx_hal_i2c.o(i.HAL_I2C_Master_Transmit)
    i.HAL_I2C_Mem_Read                       0x08002a3c   Section        0  stm32f4xx_hal_i2c.o(i.HAL_I2C_Mem_Read)
    i.HAL_I2C_Mem_Write                      0x08002c34   Section        0  stm32f4xx_hal_i2c.o(i.HAL_I2C_Mem_Write)
    i.HAL_I2C_MspInit                        0x08002d64   Section        0  stm32f4xx_hal_msp.o(i.HAL_I2C_MspInit)
    i.HAL_IncTick                            0x08002e3c   Section        0  stm32f4xx_hal.o(i.HAL_IncTick)
    i.HAL_Init                               0x08002e4c   Section        0  stm32f4xx_hal.o(i.HAL_Init)
    i.HAL_InitTick                           0x08002e80   Section        0  stm32f4xx_hal.o(i.HAL_InitTick)
    i.HAL_MspInit                            0x08002ec0   Section        0  stm32f4xx_hal_msp.o(i.HAL_MspInit)
    i.HAL_NVIC_EnableIRQ                     0x08002ef0   Section        0  stm32f4xx_hal_cortex.o(i.HAL_NVIC_EnableIRQ)
    i.HAL_NVIC_SetPriority                   0x08002f0c   Section        0  stm32f4xx_hal_cortex.o(i.HAL_NVIC_SetPriority)
    i.HAL_NVIC_SetPriorityGrouping           0x08002f4c   Section        0  stm32f4xx_hal_cortex.o(i.HAL_NVIC_SetPriorityGrouping)
    i.HAL_NVIC_SystemReset                   0x08002f70   Section        0  stm32f4xx_hal_cortex.o(i.HAL_NVIC_SystemReset)
    i.HAL_RCC_ClockConfig                    0x08002f94   Section        0  stm32f4xx_hal_rcc.o(i.HAL_RCC_ClockConfig)
    i.HAL_RCC_GetPCLK1Freq                   0x080030c4   Section        0  stm32f4xx_hal_rcc.o(i.HAL_RCC_GetPCLK1Freq)
    i.HAL_RCC_GetPCLK2Freq                   0x080030e4   Section        0  stm32f4xx_hal_rcc.o(i.HAL_RCC_GetPCLK2Freq)
    i.HAL_RCC_GetSysClockFreq                0x08003104   Section        0  stm32f4xx_hal_rcc.o(i.HAL_RCC_GetSysClockFreq)
    i.HAL_RCC_OscConfig                      0x08003168   Section        0  stm32f4xx_hal_rcc.o(i.HAL_RCC_OscConfig)
    i.HAL_SPI_GetState                       0x08003484   Section        0  stm32f4xx_hal_spi.o(i.HAL_SPI_GetState)
    i.HAL_SPI_Init                           0x0800348a   Section        0  stm32f4xx_hal_spi.o(i.HAL_SPI_Init)
    i.HAL_SPI_MspInit                        0x0800350c   Section        0  stm32f4xx_hal_msp.o(i.HAL_SPI_MspInit)
    i.HAL_SPI_Receive                        0x080035f4   Section        0  stm32f4xx_hal_spi.o(i.HAL_SPI_Receive)
    i.HAL_SPI_Transmit                       0x08003744   Section        0  stm32f4xx_hal_spi.o(i.HAL_SPI_Transmit)
    i.HAL_SPI_TransmitReceive                0x080038a0   Section        0  stm32f4xx_hal_spi.o(i.HAL_SPI_TransmitReceive)
    i.HAL_SYSTICK_Callback                   0x08003a82   Section        0  stm32f4xx_hal_cortex.o(i.HAL_SYSTICK_Callback)
    i.HAL_SYSTICK_Config                     0x08003a84   Section        0  stm32f4xx_hal_cortex.o(i.HAL_SYSTICK_Config)
    i.HAL_SYSTICK_IRQHandler                 0x08003aac   Section        0  stm32f4xx_hal_cortex.o(i.HAL_SYSTICK_IRQHandler)
    i.HAL_UART_AbortReceiveCpltCallback      0x08003ab4   Section        0  stm32f4xx_hal_uart.o(i.HAL_UART_AbortReceiveCpltCallback)
    i.HAL_UART_AbortReceive_IT               0x08003ab8   Section        0  stm32f4xx_hal_uart.o(i.HAL_UART_AbortReceive_IT)
    i.HAL_UART_ErrorCallback                 0x08003b14   Section        0  stm32f4xx_hal_uart.o(i.HAL_UART_ErrorCallback)
    i.HAL_UART_IRQHandler                    0x08003b18   Section        0  stm32f4xx_hal_uart.o(i.HAL_UART_IRQHandler)
    i.HAL_UART_Init                          0x08003c28   Section        0  stm32f4xx_hal_uart.o(i.HAL_UART_Init)
    i.HAL_UART_MspInit                       0x08003c8c   Section        0  stm32f4xx_hal_msp.o(i.HAL_UART_MspInit)
    i.HAL_UART_Receive_IT                    0x08003d04   Section        0  stm32f4xx_hal_uart.o(i.HAL_UART_Receive_IT)
    i.HAL_UART_RxCpltCallback                0x08003d56   Section        0  stm32f4xx_hal_uart.o(i.HAL_UART_RxCpltCallback)
    i.HAL_UART_Transmit                      0x08003d58   Section        0  stm32f4xx_hal_uart.o(i.HAL_UART_Transmit)
    i.HAL_UART_Transmit_IT                   0x08003e12   Section        0  stm32f4xx_hal_uart.o(i.HAL_UART_Transmit_IT)
    i.HAL_UART_TxCpltCallback                0x08003e50   Section        0  stm32f4xx_hal_uart.o(i.HAL_UART_TxCpltCallback)
    i.HardFault_Handler                      0x08003e52   Section        0  stm32f4xx_it.o(i.HardFault_Handler)
    i.I2C_IsAcknowledgeFailed                0x08003e54   Section        0  stm32f4xx_hal_i2c.o(i.I2C_IsAcknowledgeFailed)
    I2C_IsAcknowledgeFailed                  0x08003e55   Thumb Code    46  stm32f4xx_hal_i2c.o(i.I2C_IsAcknowledgeFailed)
    i.I2C_MasterRequestRead                  0x08003e82   Section        0  stm32f4xx_hal_i2c.o(i.I2C_MasterRequestRead)
    I2C_MasterRequestRead                    0x08003e83   Thumb Code   212  stm32f4xx_hal_i2c.o(i.I2C_MasterRequestRead)
    i.I2C_MasterRequestWrite                 0x08003f58   Section        0  stm32f4xx_hal_i2c.o(i.I2C_MasterRequestWrite)
    I2C_MasterRequestWrite                   0x08003f59   Thumb Code   132  stm32f4xx_hal_i2c.o(i.I2C_MasterRequestWrite)
    i.I2C_RequestMemoryRead                  0x08003fe0   Section        0  stm32f4xx_hal_i2c.o(i.I2C_RequestMemoryRead)
    I2C_RequestMemoryRead                    0x08003fe1   Thumb Code   230  stm32f4xx_hal_i2c.o(i.I2C_RequestMemoryRead)
    i.I2C_RequestMemoryWrite                 0x080040c8   Section        0  stm32f4xx_hal_i2c.o(i.I2C_RequestMemoryWrite)
    I2C_RequestMemoryWrite                   0x080040c9   Thumb Code   144  stm32f4xx_hal_i2c.o(i.I2C_RequestMemoryWrite)
    i.I2C_WaitOnBTFFlagUntilTimeout          0x0800415c   Section        0  stm32f4xx_hal_i2c.o(i.I2C_WaitOnBTFFlagUntilTimeout)
    I2C_WaitOnBTFFlagUntilTimeout            0x0800415d   Thumb Code    76  stm32f4xx_hal_i2c.o(i.I2C_WaitOnBTFFlagUntilTimeout)
    i.I2C_WaitOnFlagUntilTimeout             0x080041a8   Section        0  stm32f4xx_hal_i2c.o(i.I2C_WaitOnFlagUntilTimeout)
    I2C_WaitOnFlagUntilTimeout               0x080041a9   Thumb Code   104  stm32f4xx_hal_i2c.o(i.I2C_WaitOnFlagUntilTimeout)
    i.I2C_WaitOnMasterAddressFlagUntilTimeout 0x08004210   Section        0  stm32f4xx_hal_i2c.o(i.I2C_WaitOnMasterAddressFlagUntilTimeout)
    I2C_WaitOnMasterAddressFlagUntilTimeout  0x08004211   Thumb Code   150  stm32f4xx_hal_i2c.o(i.I2C_WaitOnMasterAddressFlagUntilTimeout)
    i.I2C_WaitOnRXNEFlagUntilTimeout         0x080042a6   Section        0  stm32f4xx_hal_i2c.o(i.I2C_WaitOnRXNEFlagUntilTimeout)
    I2C_WaitOnRXNEFlagUntilTimeout           0x080042a7   Thumb Code   102  stm32f4xx_hal_i2c.o(i.I2C_WaitOnRXNEFlagUntilTimeout)
    i.I2C_WaitOnTXEFlagUntilTimeout          0x0800430c   Section        0  stm32f4xx_hal_i2c.o(i.I2C_WaitOnTXEFlagUntilTimeout)
    I2C_WaitOnTXEFlagUntilTimeout            0x0800430d   Thumb Code    76  stm32f4xx_hal_i2c.o(i.I2C_WaitOnTXEFlagUntilTimeout)
    i.MX_FATFS_Init                          0x08004358   Section        0  fatfs.o(i.MX_FATFS_Init)
    i.MX_GPIO_Init                           0x08004374   Section        0  edusat_system.o(i.MX_GPIO_Init)
    MX_GPIO_Init                             0x08004375   Thumb Code   190  edusat_system.o(i.MX_GPIO_Init)
    i.MX_I2C1_Init                           0x08004440   Section        0  edusat_system.o(i.MX_I2C1_Init)
    MX_I2C1_Init                             0x08004441   Thumb Code    50  edusat_system.o(i.MX_I2C1_Init)
    i.MX_I2C3_Init                           0x08004480   Section        0  edusat_system.o(i.MX_I2C3_Init)
    MX_I2C3_Init                             0x08004481   Thumb Code    50  edusat_system.o(i.MX_I2C3_Init)
    i.MX_SPI2_Init                           0x080044c0   Section        0  edusat_system.o(i.MX_SPI2_Init)
    MX_SPI2_Init                             0x080044c1   Thumb Code    60  edusat_system.o(i.MX_SPI2_Init)
    i.MX_SPI3_Init                           0x08004504   Section        0  edusat_system.o(i.MX_SPI3_Init)
    MX_SPI3_Init                             0x08004505   Thumb Code    60  edusat_system.o(i.MX_SPI3_Init)
    i.MemManage_Handler                      0x08004548   Section        0  stm32f4xx_it.o(i.MemManage_Handler)
    i.NMI_Handler                            0x0800454a   Section        0  stm32f4xx_it.o(i.NMI_Handler)
    i.OpenAntennas                           0x0800454c   Section        0  eps.o(i.OpenAntennas)
    i.PendSV_Handler                         0x08004584   Section        0  stm32f4xx_it.o(i.PendSV_Handler)
    i.SDTimer_Handler                        0x08004588   Section        0  stm32f4xx_it.o(i.SDTimer_Handler)
    i.SD_CloseFile                           0x080045a8   Section        0  sdlibrary.o(i.SD_CloseFile)
    i.SD_Deinit                              0x080045bc   Section        0  sdlibrary.o(i.SD_Deinit)
    i.SD_Init                                0x080045d4   Section        0  sdlibrary.o(i.SD_Init)
    i.SD_MPU6050_Init                        0x08004660   Section        0  sd_hal_mpu6050.o(i.SD_MPU6050_Init)
    i.SD_MPU6050_ReadAccelerometer           0x08004700   Section        0  sd_hal_mpu6050.o(i.SD_MPU6050_ReadAccelerometer)
    i.SD_MPU6050_ReadGyroscope               0x08004758   Section        0  sd_hal_mpu6050.o(i.SD_MPU6050_ReadGyroscope)
    i.SD_MPU6050_SetAccelerometer            0x080047b0   Section        0  sd_hal_mpu6050.o(i.SD_MPU6050_SetAccelerometer)
    i.SD_MPU6050_SetDataRate                 0x08004850   Section        0  sd_hal_mpu6050.o(i.SD_MPU6050_SetDataRate)
    i.SD_MPU6050_SetGyroscope                0x08004878   Section        0  sd_hal_mpu6050.o(i.SD_MPU6050_SetGyroscope)
    i.SD_MPU6050_setBypass                   0x08004918   Section        0  sd_hal_mpu6050.o(i.SD_MPU6050_setBypass)
    i.SD_OpenFile                            0x08004988   Section        0  sdlibrary.o(i.SD_OpenFile)
    i.SD_PowerOn                             0x080049a4   Section        0  fatfs_sd.o(i.SD_PowerOn)
    SD_PowerOn                               0x080049a5   Thumb Code   108  fatfs_sd.o(i.SD_PowerOn)
    i.SD_PrepareFile                         0x08004a14   Section        0  sdlibrary.o(i.SD_PrepareFile)
    i.SD_Read                                0x08004ad8   Section        0  sdlibrary.o(i.SD_Read)
    i.SD_ReadyWait                           0x08004b44   Section        0  fatfs_sd.o(i.SD_ReadyWait)
    SD_ReadyWait                             0x08004b45   Thumb Code    28  fatfs_sd.o(i.SD_ReadyWait)
    i.SD_RxDataBlock                         0x08004b64   Section        0  fatfs_sd.o(i.SD_RxDataBlock)
    SD_RxDataBlock                           0x08004b65   Thumb Code    76  fatfs_sd.o(i.SD_RxDataBlock)
    i.SD_SendCmd                             0x08004bb4   Section        0  fatfs_sd.o(i.SD_SendCmd)
    SD_SendCmd                               0x08004bb5   Thumb Code   110  fatfs_sd.o(i.SD_SendCmd)
    i.SD_TxDataBlock                         0x08004c24   Section        0  fatfs_sd.o(i.SD_TxDataBlock)
    SD_TxDataBlock                           0x08004c25   Thumb Code   106  fatfs_sd.o(i.SD_TxDataBlock)
    i.SD_Write_Byte                          0x08004c8e   Section        0  sdlibrary.o(i.SD_Write_Byte)
    i.SD_Write_String                        0x08004ca2   Section        0  sdlibrary.o(i.SD_Write_String)
    i.SD_disk_initialize                     0x08004cc4   Section        0  fatfs_sd.o(i.SD_disk_initialize)
    i.SD_disk_ioctl                          0x08004dfc   Section        0  fatfs_sd.o(i.SD_disk_ioctl)
    i.SD_disk_read                           0x08004f40   Section        0  fatfs_sd.o(i.SD_disk_read)
    i.SD_disk_status                         0x08004fd8   Section        0  fatfs_sd.o(i.SD_disk_status)
    i.SD_disk_write                          0x08004fe8   Section        0  fatfs_sd.o(i.SD_disk_write)
    i.SELECT                                 0x080050a0   Section        0  fatfs_sd.o(i.SELECT)
    SELECT                                   0x080050a1   Thumb Code    10  fatfs_sd.o(i.SELECT)
    i.SPI_EndRxTransaction                   0x080050b0   Section        0  stm32f4xx_hal_spi.o(i.SPI_EndRxTransaction)
    SPI_EndRxTransaction                     0x080050b1   Thumb Code    92  stm32f4xx_hal_spi.o(i.SPI_EndRxTransaction)
    i.SPI_EndRxTxTransaction                 0x0800510c   Section        0  stm32f4xx_hal_spi.o(i.SPI_EndRxTxTransaction)
    SPI_EndRxTxTransaction                   0x0800510d   Thumb Code    80  stm32f4xx_hal_spi.o(i.SPI_EndRxTxTransaction)
    i.SPI_RxByte                             0x08005164   Section        0  fatfs_sd.o(i.SPI_RxByte)
    SPI_RxByte                               0x08005165   Thumb Code    48  fatfs_sd.o(i.SPI_RxByte)
    i.SPI_TxByte                             0x08005198   Section        0  fatfs_sd.o(i.SPI_TxByte)
    SPI_TxByte                               0x08005199   Thumb Code    28  fatfs_sd.o(i.SPI_TxByte)
    i.SPI_WaitFlagStateUntilTimeout          0x080051b8   Section        0  stm32f4xx_hal_spi.o(i.SPI_WaitFlagStateUntilTimeout)
    SPI_WaitFlagStateUntilTimeout            0x080051b9   Thumb Code   148  stm32f4xx_hal_spi.o(i.SPI_WaitFlagStateUntilTimeout)
    i.SVC_Handler                            0x0800524c   Section        0  stm32f4xx_it.o(i.SVC_Handler)
    i.SaveToSD                               0x08005250   Section        0  edusat_system.o(i.SaveToSD)
    i.SendError                              0x0800528c   Section        0  edusat_system.o(i.SendError)
    i.SetAntennaBurnDuration                 0x0800529c   Section        0  eps.o(i.SetAntennaBurnDuration)
    i.SetRW                                  0x080052d0   Section        0  adcs.o(i.SetRW)
    i.SysTick_Handler                        0x08005304   Section        0  stm32f4xx_it.o(i.SysTick_Handler)
    i.SystemClock_Config                     0x0800532c   Section        0  edusat_system.o(i.SystemClock_Config)
    i.SystemInit                             0x080053a8   Section        0  system_stm32f4xx.o(i.SystemInit)
    i.TakePhoto                              0x080053fc   Section        0  edusat_system.o(i.TakePhoto)
    i.UART4_IRQHandler                       0x08005474   Section        0  stm32f4xx_it.o(i.UART4_IRQHandler)
    i.UART_DMAAbortOnError                   0x08005494   Section        0  stm32f4xx_hal_uart.o(i.UART_DMAAbortOnError)
    UART_DMAAbortOnError                     0x08005495   Thumb Code    16  stm32f4xx_hal_uart.o(i.UART_DMAAbortOnError)
    i.UART_DMARxOnlyAbortCallback            0x080054a4   Section        0  stm32f4xx_hal_uart.o(i.UART_DMARxOnlyAbortCallback)
    UART_DMARxOnlyAbortCallback              0x080054a5   Thumb Code    20  stm32f4xx_hal_uart.o(i.UART_DMARxOnlyAbortCallback)
    i.UART_EndRxTransfer                     0x080054b8   Section        0  stm32f4xx_hal_uart.o(i.UART_EndRxTransfer)
    UART_EndRxTransfer                       0x080054b9   Thumb Code    28  stm32f4xx_hal_uart.o(i.UART_EndRxTransfer)
    i.UART_Receive_IT                        0x080054d4   Section        0  stm32f4xx_hal_uart.o(i.UART_Receive_IT)
    UART_Receive_IT                          0x080054d5   Thumb Code   150  stm32f4xx_hal_uart.o(i.UART_Receive_IT)
    i.UART_SetConfig                         0x0800556c   Section        0  stm32f4xx_hal_uart.o(i.UART_SetConfig)
    UART_SetConfig                           0x0800556d   Thumb Code   676  stm32f4xx_hal_uart.o(i.UART_SetConfig)
    i.UART_Transmit_IT                       0x08005818   Section        0  stm32f4xx_hal_uart.o(i.UART_Transmit_IT)
    UART_Transmit_IT                         0x08005819   Thumb Code    98  stm32f4xx_hal_uart.o(i.UART_Transmit_IT)
    i.UART_WaitOnFlagUntilTimeout            0x0800587a   Section        0  stm32f4xx_hal_uart.o(i.UART_WaitOnFlagUntilTimeout)
    UART_WaitOnFlagUntilTimeout              0x0800587b   Thumb Code   100  stm32f4xx_hal_uart.o(i.UART_WaitOnFlagUntilTimeout)
    i.USER_initialize                        0x080058de   Section        0  user_diskio.o(i.USER_initialize)
    i.USER_ioctl                             0x080058e2   Section        0  user_diskio.o(i.USER_ioctl)
    i.USER_read                              0x080058e6   Section        0  user_diskio.o(i.USER_read)
    i.USER_status                            0x080058ea   Section        0  user_diskio.o(i.USER_status)
    i.USER_write                             0x080058ee   Section        0  user_diskio.o(i.USER_write)
    i.UsageFault_Handler                     0x080058f2   Section        0  stm32f4xx_it.o(i.UsageFault_Handler)
    i.Use_BMP                                0x080058f4   Section        0  edusat_sensors.o(i.Use_BMP)
    i.Use_MPU                                0x08005998   Section        0  edusat_sensors.o(i.Use_MPU)
    i.Use_Magneto                            0x08005b18   Section        0  edusat_sensors.o(i.Use_Magneto)
    i.__0sprintf                             0x08005b70   Section        0  printfa.o(i.__0sprintf)
    i.__ARM_fpclassify                       0x08005b98   Section        0  fpclassify.o(i.__ARM_fpclassify)
    i.__NVIC_SetPriority                     0x08005bc8   Section        0  stm32f4xx_hal_cortex.o(i.__NVIC_SetPriority)
    __NVIC_SetPriority                       0x08005bc9   Thumb Code    32  stm32f4xx_hal_cortex.o(i.__NVIC_SetPriority)
    i.__hardfp_pow                           0x08005be8   Section        0  pow.o(i.__hardfp_pow)
    i.__kernel_poly                          0x08006838   Section        0  poly.o(i.__kernel_poly)
    i.__mathlib_dbl_divzero                  0x08006930   Section        0  dunder.o(i.__mathlib_dbl_divzero)
    i.__mathlib_dbl_infnan2                  0x08006960   Section        0  dunder.o(i.__mathlib_dbl_infnan2)
    i.__mathlib_dbl_invalid                  0x08006978   Section        0  dunder.o(i.__mathlib_dbl_invalid)
    i.__mathlib_dbl_overflow                 0x08006998   Section        0  dunder.o(i.__mathlib_dbl_overflow)
    i.__mathlib_dbl_underflow                0x080069b8   Section        0  dunder.o(i.__mathlib_dbl_underflow)
    i.__scatterload_copy                     0x080069d8   Section       14  handlers.o(i.__scatterload_copy)
    i.__scatterload_null                     0x080069e6   Section        2  handlers.o(i.__scatterload_null)
    i.__scatterload_zeroinit                 0x080069e8   Section       14  handlers.o(i.__scatterload_zeroinit)
    i.__set_errno                            0x080069f8   Section        0  errno.o(i.__set_errno)
    i._fp_digits                             0x08006a04   Section        0  printfa.o(i._fp_digits)
    _fp_digits                               0x08006a05   Thumb Code   366  printfa.o(i._fp_digits)
    i._printf_core                           0x08006b88   Section        0  printfa.o(i._printf_core)
    _printf_core                             0x08006b89   Thumb Code  1744  printfa.o(i._printf_core)
    i._printf_post_padding                   0x08007264   Section        0  printfa.o(i._printf_post_padding)
    _printf_post_padding                     0x08007265   Thumb Code    36  printfa.o(i._printf_post_padding)
    i._printf_pre_padding                    0x08007288   Section        0  printfa.o(i._printf_pre_padding)
    _printf_pre_padding                      0x08007289   Thumb Code    46  printfa.o(i._printf_pre_padding)
    i._sputc                                 0x080072b6   Section        0  printfa.o(i._sputc)
    _sputc                                   0x080072b7   Thumb Code    10  printfa.o(i._sputc)
    i.check_fs                               0x080072c0   Section        0  ff.o(i.check_fs)
    check_fs                                 0x080072c1   Thumb Code   102  ff.o(i.check_fs)
    i.chk_chr                                0x08007330   Section        0  ff.o(i.chk_chr)
    chk_chr                                  0x08007331   Thumb Code    16  ff.o(i.chk_chr)
    i.chk_lock                               0x08007340   Section        0  ff.o(i.chk_lock)
    chk_lock                                 0x08007341   Thumb Code    86  ff.o(i.chk_lock)
    i.clear_lock                             0x0800739c   Section        0  ff.o(i.clear_lock)
    clear_lock                               0x0800739d   Thumb Code    28  ff.o(i.clear_lock)
    i.clearbuffer                            0x080073bc   Section        0  edusat_system.o(i.clearbuffer)
    i.clmt_clust                             0x080073ec   Section        0  ff.o(i.clmt_clust)
    clmt_clust                               0x080073ed   Thumb Code    38  ff.o(i.clmt_clust)
    i.clust2sect                             0x08007412   Section        0  ff.o(i.clust2sect)
    clust2sect                               0x08007413   Thumb Code    24  ff.o(i.clust2sect)
    i.cmp_lfn                                0x0800742c   Section        0  ff.o(i.cmp_lfn)
    cmp_lfn                                  0x0800742d   Thumb Code   124  ff.o(i.cmp_lfn)
    i.convertToInt16                         0x080074ac   Section        0  edusat_system.o(i.convertToInt16)
    i.create_chain                           0x080074dc   Section        0  ff.o(i.create_chain)
    create_chain                             0x080074dd   Thumb Code   164  ff.o(i.create_chain)
    i.create_name                            0x08007580   Section        0  ff.o(i.create_name)
    create_name                              0x08007581   Thumb Code   494  ff.o(i.create_name)
    i.dec_lock                               0x08007788   Section        0  ff.o(i.dec_lock)
    dec_lock                                 0x08007789   Thumb Code    48  ff.o(i.dec_lock)
    i.dir_find                               0x080077bc   Section        0  ff.o(i.dir_find)
    dir_find                                 0x080077bd   Thumb Code   208  ff.o(i.dir_find)
    i.dir_next                               0x0800788c   Section        0  ff.o(i.dir_next)
    dir_next                                 0x0800788d   Thumb Code   258  ff.o(i.dir_next)
    i.dir_register                           0x08007990   Section        0  ff.o(i.dir_register)
    dir_register                             0x08007991   Thumb Code   480  ff.o(i.dir_register)
    i.dir_sdi                                0x08007b74   Section        0  ff.o(i.dir_sdi)
    dir_sdi                                  0x08007b75   Thumb Code   142  ff.o(i.dir_sdi)
    i.disk_initialize                        0x08007c04   Section        0  diskio.o(i.disk_initialize)
    i.disk_ioctl                             0x08007c2c   Section        0  diskio.o(i.disk_ioctl)
    i.disk_read                              0x08007c48   Section        0  diskio.o(i.disk_read)
    i.disk_status                            0x08007c64   Section        0  diskio.o(i.disk_status)
    i.disk_write                             0x08007c7c   Section        0  diskio.o(i.disk_write)
    i.f_close                                0x08007c98   Section        0  ff.o(i.f_close)
    i.f_getfree                              0x08007cc0   Section        0  ff.o(i.f_getfree)
    i.f_gets                                 0x08007d94   Section        0  ff.o(i.f_gets)
    i.f_mount                                0x08007ddc   Section        0  ff.o(i.f_mount)
    i.f_open                                 0x08007e34   Section        0  ff.o(i.f_open)
    i.f_putc                                 0x08008050   Section        0  ff.o(i.f_putc)
    i.f_puts                                 0x0800806e   Section        0  ff.o(i.f_puts)
    i.f_read                                 0x08008094   Section        0  ff.o(i.f_read)
    i.f_sync                                 0x0800820a   Section        0  ff.o(i.f_sync)
    i.f_write                                0x08008298   Section        0  ff.o(i.f_write)
    i.fabs                                   0x0800844a   Section        0  fabs.o(i.fabs)
    i.ff_convert                             0x08008464   Section        0  ccsbcs.o(i.ff_convert)
    i.ff_wtoupper                            0x0800849c   Section        0  ccsbcs.o(i.ff_wtoupper)
    i.find_volume                            0x0800851c   Section        0  ff.o(i.find_volume)
    find_volume                              0x0800851d   Thumb Code   640  ff.o(i.find_volume)
    i.follow_path                            0x080087ac   Section        0  ff.o(i.follow_path)
    follow_path                              0x080087ad   Thumb Code   122  ff.o(i.follow_path)
    i.gen_numname                            0x08008828   Section        0  ff.o(i.gen_numname)
    gen_numname                              0x08008829   Thumb Code   122  ff.o(i.gen_numname)
    i.getEPSdata                             0x080088a8   Section        0  eps.o(i.getEPSdata)
    i.getLDRdata                             0x080088cc   Section        0  adcs.o(i.getLDRdata)
    i.getSensorData                          0x080088f0   Section        0  edusat_sensors.o(i.getSensorData)
    i.get_fat                                0x080089c8   Section        0  ff.o(i.get_fat)
    get_fat                                  0x080089c9   Thumb Code   232  ff.o(i.get_fat)
    i.get_fattime                            0x08008ab0   Section        0  fatfs.o(i.get_fattime)
    i.get_ldnumber                           0x08008ab4   Section        0  ff.o(i.get_ldnumber)
    get_ldnumber                             0x08008ab5   Thumb Code    60  ff.o(i.get_ldnumber)
    i.inc_lock                               0x08008af0   Section        0  ff.o(i.inc_lock)
    inc_lock                                 0x08008af1   Thumb Code   124  ff.o(i.inc_lock)
    i.ld_clust                               0x08008b70   Section        0  ff.o(i.ld_clust)
    ld_clust                                 0x08008b71   Thumb Code    38  ff.o(i.ld_clust)
    i.ld_dword                               0x08008b96   Section        0  ff.o(i.ld_dword)
    ld_dword                                 0x08008b97   Thumb Code    22  ff.o(i.ld_dword)
    i.ld_word                                0x08008bac   Section        0  ff.o(i.ld_word)
    ld_word                                  0x08008bad   Thumb Code    10  ff.o(i.ld_word)
    i.main                                   0x08008bb8   Section        0  main.o(i.main)
    i.mem_cpy                                0x08008e20   Section        0  ff.o(i.mem_cpy)
    mem_cpy                                  0x08008e21   Thumb Code    18  ff.o(i.mem_cpy)
    i.mem_set                                0x08008e34   Section        0  ff.o(i.mem_set)
    mem_set                                  0x08008e35   Thumb Code    14  ff.o(i.mem_set)
    i.move_window                            0x08008e42   Section        0  ff.o(i.move_window)
    move_window                              0x08008e43   Thumb Code    50  ff.o(i.move_window)
    i.power                                  0x08008e74   Section        0  edusat_system.o(i.power)
    i.put_fat                                0x08008e8a   Section        0  ff.o(i.put_fat)
    put_fat                                  0x08008e8b   Thumb Code   292  ff.o(i.put_fat)
    i.putc_bfd                               0x08008fae   Section        0  ff.o(i.putc_bfd)
    putc_bfd                                 0x08008faf   Thumb Code    58  ff.o(i.putc_bfd)
    i.putc_flush                             0x08008fe8   Section        0  ff.o(i.putc_flush)
    putc_flush                               0x08008fe9   Thumb Code    42  ff.o(i.putc_flush)
    i.readI2CMaster                          0x08009014   Section        0  arducam.o(i.readI2CMaster)
    i.readI2CMasterByte                      0x08009030   Section        0  arducam.o(i.readI2CMasterByte)
    i.readSPImaster                          0x08009050   Section        0  arducam.o(i.readSPImaster)
    i.remove_chain                           0x08009098   Section        0  ff.o(i.remove_chain)
    remove_chain                             0x08009099   Thumb Code   116  ff.o(i.remove_chain)
    i.sqrt                                   0x0800910c   Section        0  sqrt.o(i.sqrt)
    i.st_clust                               0x0800917a   Section        0  ff.o(i.st_clust)
    st_clust                                 0x0800917b   Thumb Code    40  ff.o(i.st_clust)
    i.st_dword                               0x080091a2   Section        0  ff.o(i.st_dword)
    st_dword                                 0x080091a3   Thumb Code    16  ff.o(i.st_dword)
    i.st_word                                0x080091b2   Section        0  ff.o(i.st_word)
    st_word                                  0x080091b3   Thumb Code     8  ff.o(i.st_word)
    i.sum_sfn                                0x080091ba   Section        0  ff.o(i.sum_sfn)
    sum_sfn                                  0x080091bb   Thumb Code    26  ff.o(i.sum_sfn)
    i.sync_fs                                0x080091d4   Section        0  ff.o(i.sync_fs)
    sync_fs                                  0x080091d5   Thumb Code   126  ff.o(i.sync_fs)
    i.sync_window                            0x0800925c   Section        0  ff.o(i.sync_window)
    sync_window                              0x0800925d   Thumb Code    82  ff.o(i.sync_window)
    i.validate                               0x080092ae   Section        0  ff.o(i.validate)
    validate                                 0x080092af   Thumb Code    52  ff.o(i.validate)
    i.writeI2CMaster                         0x080092e4   Section        0  arducam.o(i.writeI2CMaster)
    i.writeI2CMasterByte                     0x08009300   Section        0  arducam.o(i.writeI2CMasterByte)
    i.writeSPImaster                         0x08009324   Section        0  arducam.o(i.writeSPImaster)
    .constdata                               0x0800935c   Section      260  ov5642_regs.o(.constdata)
    .constdata                               0x08009460   Section      108  ov5642_regs.o(.constdata)
    .constdata                               0x080094cc   Section      108  ov5642_regs.o(.constdata)
    .constdata                               0x08009538   Section      104  ov5642_regs.o(.constdata)
    .constdata                               0x080095a0   Section      104  ov5642_regs.o(.constdata)
    .constdata                               0x08009608   Section      104  ov5642_regs.o(.constdata)
    .constdata                               0x08009670   Section      232  ov5642_regs.o(.constdata)
    .constdata                               0x08009758   Section      104  ov5642_regs.o(.constdata)
    .constdata                               0x080097c0   Section     2336  ov5642_regs.o(.constdata)
    .constdata                               0x0800a0e0   Section       10  eps.o(.constdata)
    .constdata                               0x0800a0ea   Section       16  system_stm32f4xx.o(.constdata)
    .constdata                               0x0800a0fa   Section        8  system_stm32f4xx.o(.constdata)
    .constdata                               0x0800a102   Section      170  ff.o(.constdata)
    ExCvt                                    0x0800a102   Data         128  ff.o(.constdata)
    LfnOfs                                   0x0800a182   Data          13  ff.o(.constdata)
    cst                                      0x0800a190   Data          14  ff.o(.constdata)
    cst32                                    0x0800a19e   Data          14  ff.o(.constdata)
    .constdata                               0x0800a1ac   Section      942  ccsbcs.o(.constdata)
    Tbl                                      0x0800a1ac   Data         256  ccsbcs.o(.constdata)
    cvt1                                     0x0800a2ac   Data         498  ccsbcs.o(.constdata)
    cvt2                                     0x0800a49e   Data         188  ccsbcs.o(.constdata)
    .constdata                               0x0800a560   Section      136  pow.o(.constdata)
    bp                                       0x0800a560   Data          16  pow.o(.constdata)
    dp_h                                     0x0800a570   Data          16  pow.o(.constdata)
    dp_l                                     0x0800a580   Data          16  pow.o(.constdata)
    L                                        0x0800a590   Data          48  pow.o(.constdata)
    P                                        0x0800a5c0   Data          40  pow.o(.constdata)
    .constdata                               0x0800a5e8   Section        8  qnan.o(.constdata)
    .data                                    0x20000000   Section       12  main.o(.data)
    .data                                    0x2000000c   Section       20  user_diskio.o(.data)
    .data                                    0x20000020   Section        5  fatfs.o(.data)
    .data                                    0x20000025   Section        3  stm32f4xx_it.o(.data)
    .data                                    0x20000028   Section       32  bmp085.o(.data)
    .data                                    0x20000048   Section        3  fatfs_sd.o(.data)
    Stat                                     0x20000048   Data           1  fatfs_sd.o(.data)
    PowerFlag                                0x20000049   Data           1  fatfs_sd.o(.data)
    CardType                                 0x2000004a   Data           1  fatfs_sd.o(.data)
    .data                                    0x2000004b   Section        9  hmc5883l.o(.data)
    .data                                    0x20000054   Section       25  adcs.o(.data)
    .data                                    0x2000006d   Section       26  eps.o(.data)
    .data                                    0x20000087   Section        8  edusat_system.o(.data)
    .data                                    0x20000090   Section       12  stm32f4xx_hal.o(.data)
    .data                                    0x2000009c   Section        4  system_stm32f4xx.o(.data)
    .data                                    0x200000a0   Section        8  ff.o(.data)
    Fsid                                     0x200000a0   Data           2  ff.o(.data)
    FatFs                                    0x200000a4   Data           4  ff.o(.data)
    .data                                    0x200000a8   Section        4  errno.o(.data)
    _errno                                   0x200000a8   Data           4  errno.o(.data)
    .bss                                     0x200000ac   Section      140  main.o(.bss)
    .bss                                     0x20000138   Section      292  arducam.o(.bss)
    buf                                      0x2000015c   Data         256  arducam.o(.bss)
    .bss                                     0x2000025c   Section       28  sd_hal_mpu6050.o(.bss)
    .bss                                     0x20000278   Section    12656  sdlibrary.o(.bss)
    .bss                                     0x200033e8   Section      408  edusat_system.o(.bss)
    .bss                                     0x20003580   Section      125  edusat_sensors.o(.bss)
    .bss                                     0x20003600   Section      544  ff.o(.bss)
    Files                                    0x20003600   Data          32  ff.o(.bss)
    LfnBuf                                   0x20003620   Data         512  ff.o(.bss)
    .bss                                     0x20003820   Section       12  ff_gen_drv.o(.bss)
    STACK                                    0x20003830   Section     1024  startup_stm32f407xx.o(STACK)

    Global Symbols

    Symbol Name                              Value     Ov Type        Size  Object(Section)

    BuildAttributes$$THM_ISAv4$E$P$D$K$B$S$7EM$VFPi3$EXTD16$VFPS$VFMA$PE$A:L22UL41UL21$X:L11$S22US41US21$IEEE1$IW$USESV6$~STKCKD$USESV7$~SHL$OTIME$ROPI$IEEEX$EBA8$MICROLIB$REQ8$PRES8$EABIv2 0x00000000   Number         0  anon$$obj.o ABSOLUTE
    __ARM_use_no_argv                        0x00000000   Number         0  main.o ABSOLUTE
    _printf_a                                0x00000000   Number         0  stubs.o ABSOLUTE
    _printf_c                                0x00000000   Number         0  stubs.o ABSOLUTE
    _printf_charcount                        0x00000000   Number         0  stubs.o ABSOLUTE
    _printf_d                                0x00000000   Number         0  stubs.o ABSOLUTE
    _printf_e                                0x00000000   Number         0  stubs.o ABSOLUTE
    _printf_f                                0x00000000   Number         0  stubs.o ABSOLUTE
    _printf_flags                            0x00000000   Number         0  stubs.o ABSOLUTE
    _printf_fp_dec                           0x00000000   Number         0  stubs.o ABSOLUTE
    _printf_fp_hex                           0x00000000   Number         0  stubs.o ABSOLUTE
    _printf_g                                0x00000000   Number         0  stubs.o ABSOLUTE
    _printf_i                                0x00000000   Number         0  stubs.o ABSOLUTE
    _printf_int_dec                          0x00000000   Number         0  stubs.o ABSOLUTE
    _printf_l                                0x00000000   Number         0  stubs.o ABSOLUTE
    _printf_lc                               0x00000000   Number         0  stubs.o ABSOLUTE
    _printf_ll                               0x00000000   Number         0  stubs.o ABSOLUTE
    _printf_lld                              0x00000000   Number         0  stubs.o ABSOLUTE
    _printf_lli                              0x00000000   Number         0  stubs.o ABSOLUTE
    _printf_llo                              0x00000000   Number         0  stubs.o ABSOLUTE
    _printf_llu                              0x00000000   Number         0  stubs.o ABSOLUTE
    _printf_llx                              0x00000000   Number         0  stubs.o ABSOLUTE
    _printf_longlong_dec                     0x00000000   Number         0  stubs.o ABSOLUTE
    _printf_longlong_hex                     0x00000000   Number         0  stubs.o ABSOLUTE
    _printf_longlong_oct                     0x00000000   Number         0  stubs.o ABSOLUTE
    _printf_ls                               0x00000000   Number         0  stubs.o ABSOLUTE
    _printf_mbtowc                           0x00000000   Number         0  stubs.o ABSOLUTE
    _printf_n                                0x00000000   Number         0  stubs.o ABSOLUTE
    _printf_o                                0x00000000   Number         0  stubs.o ABSOLUTE
    _printf_p                                0x00000000   Number         0  stubs.o ABSOLUTE
    _printf_percent                          0x00000000   Number         0  stubs.o ABSOLUTE
    _printf_pre_padding                      0x00000000   Number         0  stubs.o ABSOLUTE
    _printf_return_value                     0x00000000   Number         0  stubs.o ABSOLUTE
    _printf_s                                0x00000000   Number         0  stubs.o ABSOLUTE
    _printf_sizespec                         0x00000000   Number         0  stubs.o ABSOLUTE
    _printf_str                              0x00000000   Number         0  stubs.o ABSOLUTE
    _printf_truncate_signed                  0x00000000   Number         0  stubs.o ABSOLUTE
    _printf_truncate_unsigned                0x00000000   Number         0  stubs.o ABSOLUTE
    _printf_u                                0x00000000   Number         0  stubs.o ABSOLUTE
    _printf_wc                               0x00000000   Number         0  stubs.o ABSOLUTE
    _printf_wctomb                           0x00000000   Number         0  stubs.o ABSOLUTE
    _printf_widthprec                        0x00000000   Number         0  stubs.o ABSOLUTE
    _printf_x                                0x00000000   Number         0  stubs.o ABSOLUTE
    __cpp_initialize__aeabi_                  - Undefined Weak Reference
    __cxa_finalize                            - Undefined Weak Reference
    __decompress                              - Undefined Weak Reference
    _clock_init                               - Undefined Weak Reference
    _microlib_exit                            - Undefined Weak Reference
    __Vectors_Size                           0x00000188   Number         0  startup_stm32f407xx.o ABSOLUTE
    __Vectors                                0x08000000   Data           4  startup_stm32f407xx.o(RESET)
    __Vectors_End                            0x08000188   Data           0  startup_stm32f407xx.o(RESET)
    __main                                   0x08000189   Thumb Code     0  entry.o(.ARM.Collect$$$$00000000)
    _main_stk                                0x08000189   Thumb Code     0  entry2.o(.ARM.Collect$$$$00000001)
    _main_scatterload                        0x0800018d   Thumb Code     0  entry5.o(.ARM.Collect$$$$00000004)
    __main_after_scatterload                 0x08000191   Thumb Code     0  entry5.o(.ARM.Collect$$$$00000004)
    _main_clock                              0x08000191   Thumb Code     0  entry7b.o(.ARM.Collect$$$$00000008)
    _main_cpp_init                           0x08000191   Thumb Code     0  entry8b.o(.ARM.Collect$$$$0000000A)
    _main_init                               0x08000191   Thumb Code     0  entry9a.o(.ARM.Collect$$$$0000000B)
    __rt_final_cpp                           0x08000199   Thumb Code     0  entry10a.o(.ARM.Collect$$$$0000000D)
    __rt_final_exit                          0x08000199   Thumb Code     0  entry11a.o(.ARM.Collect$$$$0000000F)
    Reset_Handler                            0x0800019d   Thumb Code     8  startup_stm32f407xx.o(.text)
    ADC_IRQHandler                           0x080001b7   Thumb Code     0  startup_stm32f407xx.o(.text)
    CAN1_RX0_IRQHandler                      0x080001b7   Thumb Code     0  startup_stm32f407xx.o(.text)
    CAN1_RX1_IRQHandler                      0x080001b7   Thumb Code     0  startup_stm32f407xx.o(.text)
    CAN1_SCE_IRQHandler                      0x080001b7   Thumb Code     0  startup_stm32f407xx.o(.text)
    CAN1_TX_IRQHandler                       0x080001b7   Thumb Code     0  startup_stm32f407xx.o(.text)
    CAN2_RX0_IRQHandler                      0x080001b7   Thumb Code     0  startup_stm32f407xx.o(.text)
    CAN2_RX1_IRQHandler                      0x080001b7   Thumb Code     0  startup_stm32f407xx.o(.text)
    CAN2_SCE_IRQHandler                      0x080001b7   Thumb Code     0  startup_stm32f407xx.o(.text)
    CAN2_TX_IRQHandler                       0x080001b7   Thumb Code     0  startup_stm32f407xx.o(.text)
    DCMI_IRQHandler                          0x080001b7   Thumb Code     0  startup_stm32f407xx.o(.text)
    DMA1_Stream0_IRQHandler                  0x080001b7   Thumb Code     0  startup_stm32f407xx.o(.text)
    DMA1_Stream1_IRQHandler                  0x080001b7   Thumb Code     0  startup_stm32f407xx.o(.text)
    DMA1_Stream2_IRQHandler                  0x080001b7   Thumb Code     0  startup_stm32f407xx.o(.text)
    DMA1_Stream3_IRQHandler                  0x080001b7   Thumb Code     0  startup_stm32f407xx.o(.text)
    DMA1_Stream4_IRQHandler                  0x080001b7   Thumb Code     0  startup_stm32f407xx.o(.text)
    DMA1_Stream5_IRQHandler                  0x080001b7   Thumb Code     0  startup_stm32f407xx.o(.text)
    DMA1_Stream6_IRQHandler                  0x080001b7   Thumb Code     0  startup_stm32f407xx.o(.text)
    DMA1_Stream7_IRQHandler                  0x080001b7   Thumb Code     0  startup_stm32f407xx.o(.text)
    DMA2_Stream0_IRQHandler                  0x080001b7   Thumb Code     0  startup_stm32f407xx.o(.text)
    DMA2_Stream1_IRQHandler                  0x080001b7   Thumb Code     0  startup_stm32f407xx.o(.text)
    DMA2_Stream2_IRQHandler                  0x080001b7   Thumb Code     0  startup_stm32f407xx.o(.text)
    DMA2_Stream3_IRQHandler                  0x080001b7   Thumb Code     0  startup_stm32f407xx.o(.text)
    DMA2_Stream4_IRQHandler                  0x080001b7   Thumb Code     0  startup_stm32f407xx.o(.text)
    DMA2_Stream5_IRQHandler                  0x080001b7   Thumb Code     0  startup_stm32f407xx.o(.text)
    DMA2_Stream6_IRQHandler                  0x080001b7   Thumb Code     0  startup_stm32f407xx.o(.text)
    DMA2_Stream7_IRQHandler                  0x080001b7   Thumb Code     0  startup_stm32f407xx.o(.text)
    ETH_IRQHandler                           0x080001b7   Thumb Code     0  startup_stm32f407xx.o(.text)
    ETH_WKUP_IRQHandler                      0x080001b7   Thumb Code     0  startup_stm32f407xx.o(.text)
    EXTI0_IRQHandler                         0x080001b7   Thumb Code     0  startup_stm32f407xx.o(.text)
    EXTI15_10_IRQHandler                     0x080001b7   Thumb Code     0  startup_stm32f407xx.o(.text)
    EXTI1_IRQHandler                         0x080001b7   Thumb Code     0  startup_stm32f407xx.o(.text)
    EXTI2_IRQHandler                         0x080001b7   Thumb Code     0  startup_stm32f407xx.o(.text)
    EXTI3_IRQHandler                         0x080001b7   Thumb Code     0  startup_stm32f407xx.o(.text)
    EXTI4_IRQHandler                         0x080001b7   Thumb Code     0  startup_stm32f407xx.o(.text)
    EXTI9_5_IRQHandler                       0x080001b7   Thumb Code     0  startup_stm32f407xx.o(.text)
    FLASH_IRQHandler                         0x080001b7   Thumb Code     0  startup_stm32f407xx.o(.text)
    FMC_IRQHandler                           0x080001b7   Thumb Code     0  startup_stm32f407xx.o(.text)
    FPU_IRQHandler                           0x080001b7   Thumb Code     0  startup_stm32f407xx.o(.text)
    HASH_RNG_IRQHandler                      0x080001b7   Thumb Code     0  startup_stm32f407xx.o(.text)
    I2C1_ER_IRQHandler                       0x080001b7   Thumb Code     0  startup_stm32f407xx.o(.text)
    I2C1_EV_IRQHandler                       0x080001b7   Thumb Code     0  startup_stm32f407xx.o(.text)
    I2C2_ER_IRQHandler                       0x080001b7   Thumb Code     0  startup_stm32f407xx.o(.text)
    I2C2_EV_IRQHandler                       0x080001b7   Thumb Code     0  startup_stm32f407xx.o(.text)
    I2C3_ER_IRQHandler                       0x080001b7   Thumb Code     0  startup_stm32f407xx.o(.text)
    I2C3_EV_IRQHandler                       0x080001b7   Thumb Code     0  startup_stm32f407xx.o(.text)
    OTG_FS_IRQHandler                        0x080001b7   Thumb Code     0  startup_stm32f407xx.o(.text)
    OTG_FS_WKUP_IRQHandler                   0x080001b7   Thumb Code     0  startup_stm32f407xx.o(.text)
    OTG_HS_EP1_IN_IRQHandler                 0x080001b7   Thumb Code     0  startup_stm32f407xx.o(.text)
    OTG_HS_EP1_OUT_IRQHandler                0x080001b7   Thumb Code     0  startup_stm32f407xx.o(.text)
    OTG_HS_IRQHandler                        0x080001b7   Thumb Code     0  startup_stm32f407xx.o(.text)
    OTG_HS_WKUP_IRQHandler                   0x080001b7   Thumb Code     0  startup_stm32f407xx.o(.text)
    PVD_IRQHandler                           0x080001b7   Thumb Code     0  startup_stm32f407xx.o(.text)
    RCC_IRQHandler                           0x080001b7   Thumb Code     0  startup_stm32f407xx.o(.text)
    RTC_Alarm_IRQHandler                     0x080001b7   Thumb Code     0  startup_stm32f407xx.o(.text)
    RTC_WKUP_IRQHandler                      0x080001b7   Thumb Code     0  startup_stm32f407xx.o(.text)
    SDIO_IRQHandler                          0x080001b7   Thumb Code     0  startup_stm32f407xx.o(.text)
    SPI1_IRQHandler                          0x080001b7   Thumb Code     0  startup_stm32f407xx.o(.text)
    SPI2_IRQHandler                          0x080001b7   Thumb Code     0  startup_stm32f407xx.o(.text)
    SPI3_IRQHandler                          0x080001b7   Thumb Code     0  startup_stm32f407xx.o(.text)
    TAMP_STAMP_IRQHandler                    0x080001b7   Thumb Code     0  startup_stm32f407xx.o(.text)
    TIM1_BRK_TIM9_IRQHandler                 0x080001b7   Thumb Code     0  startup_stm32f407xx.o(.text)
    TIM1_CC_IRQHandler                       0x080001b7   Thumb Code     0  startup_stm32f407xx.o(.text)
    TIM1_TRG_COM_TIM11_IRQHandler            0x080001b7   Thumb Code     0  startup_stm32f407xx.o(.text)
    TIM1_UP_TIM10_IRQHandler                 0x080001b7   Thumb Code     0  startup_stm32f407xx.o(.text)
    TIM2_IRQHandler                          0x080001b7   Thumb Code     0  startup_stm32f407xx.o(.text)
    TIM3_IRQHandler                          0x080001b7   Thumb Code     0  startup_stm32f407xx.o(.text)
    TIM4_IRQHandler                          0x080001b7   Thumb Code     0  startup_stm32f407xx.o(.text)
    TIM5_IRQHandler                          0x080001b7   Thumb Code     0  startup_stm32f407xx.o(.text)
    TIM6_DAC_IRQHandler                      0x080001b7   Thumb Code     0  startup_stm32f407xx.o(.text)
    TIM7_IRQHandler                          0x080001b7   Thumb Code     0  startup_stm32f407xx.o(.text)
    TIM8_BRK_TIM12_IRQHandler                0x080001b7   Thumb Code     0  startup_stm32f407xx.o(.text)
    TIM8_CC_IRQHandler                       0x080001b7   Thumb Code     0  startup_stm32f407xx.o(.text)
    TIM8_TRG_COM_TIM14_IRQHandler            0x080001b7   Thumb Code     0  startup_stm32f407xx.o(.text)
    TIM8_UP_TIM13_IRQHandler                 0x080001b7   Thumb Code     0  startup_stm32f407xx.o(.text)
    UART5_IRQHandler                         0x080001b7   Thumb Code     0  startup_stm32f407xx.o(.text)
    USART1_IRQHandler                        0x080001b7   Thumb Code     0  startup_stm32f407xx.o(.text)
    USART2_IRQHandler                        0x080001b7   Thumb Code     0  startup_stm32f407xx.o(.text)
    USART3_IRQHandler                        0x080001b7   Thumb Code     0  startup_stm32f407xx.o(.text)
    USART6_IRQHandler                        0x080001b7   Thumb Code     0  startup_stm32f407xx.o(.text)
    WWDG_IRQHandler                          0x080001b7   Thumb Code     0  startup_stm32f407xx.o(.text)
    __aeabi_uldivmod                         0x080001c1   Thumb Code    98  uldiv.o(.text)
    __aeabi_memset                           0x08000223   Thumb Code    14  memseta.o(.text)
    __aeabi_memset4                          0x08000223   Thumb Code     0  memseta.o(.text)
    __aeabi_memset8                          0x08000223   Thumb Code     0  memseta.o(.text)
    __aeabi_memclr                           0x08000231   Thumb Code     4  memseta.o(.text)
    __aeabi_memclr4                          0x08000231   Thumb Code     0  memseta.o(.text)
    __aeabi_memclr8                          0x08000231   Thumb Code     0  memseta.o(.text)
    _memset$wrapper                          0x08000235   Thumb Code    18  memseta.o(.text)
    strlen                                   0x08000247   Thumb Code    14  strlen.o(.text)
    strcpy                                   0x08000255   Thumb Code    18  strcpy.o(.text)
    strncmp                                  0x08000267   Thumb Code    30  strncmp.o(.text)
    __aeabi_dadd                             0x08000285   Thumb Code   322  dadd.o(.text)
    __aeabi_dsub                             0x080003c7   Thumb Code     6  dadd.o(.text)
    __aeabi_drsub                            0x080003cd   Thumb Code     6  dadd.o(.text)
    __aeabi_dmul                             0x080003d3   Thumb Code   228  dmul.o(.text)
    __aeabi_ddiv                             0x080004b7   Thumb Code   222  ddiv.o(.text)
    __aeabi_i2d                              0x08000595   Thumb Code    34  dflti.o(.text)
    __aeabi_ui2d                             0x080005b7   Thumb Code    26  dfltui.o(.text)
    __aeabi_d2uiz                            0x080005d1   Thumb Code    50  dfixui.o(.text)
    __aeabi_f2d                              0x08000603   Thumb Code    38  f2d.o(.text)
    __aeabi_cdcmpeq                          0x08000629   Thumb Code     0  cdcmple.o(.text)
    __aeabi_cdcmple                          0x08000629   Thumb Code    48  cdcmple.o(.text)
    __aeabi_d2f                              0x08000659   Thumb Code    56  d2f.o(.text)
    __aeabi_uidiv                            0x08000691   Thumb Code     0  uidiv.o(.text)
    __aeabi_uidivmod                         0x08000691   Thumb Code    44  uidiv.o(.text)
    __aeabi_llsl                             0x080006bd   Thumb Code    30  llshl.o(.text)
    _ll_shift_l                              0x080006bd   Thumb Code     0  llshl.o(.text)
    __aeabi_llsr                             0x080006db   Thumb Code    32  llushr.o(.text)
    _ll_ushift_r                             0x080006db   Thumb Code     0  llushr.o(.text)
    __aeabi_lasr                             0x080006fb   Thumb Code    36  llsshr.o(.text)
    _ll_sshift_r                             0x080006fb   Thumb Code     0  llsshr.o(.text)
    __I$use$fp                               0x0800071f   Thumb Code     0  iusefp.o(.text)
    _float_round                             0x0800071f   Thumb Code    18  fepilogue.o(.text)
    _float_epilogue                          0x08000731   Thumb Code    92  fepilogue.o(.text)
    _double_round                            0x0800078d   Thumb Code    30  depilogue.o(.text)
    _double_epilogue                         0x080007ab   Thumb Code   156  depilogue.o(.text)
    __ARM_scalbn                             0x08000847   Thumb Code    46  dscalb.o(.text)
    scalbn                                   0x08000847   Thumb Code     0  dscalb.o(.text)
    __aeabi_d2ulz                            0x08000875   Thumb Code    48  dfixul.o(.text)
    __aeabi_cdrcmple                         0x080008a5   Thumb Code    48  cdrcmple.o(.text)
    __scatterload                            0x080008d5   Thumb Code    28  init.o(.text)
    __scatterload_rt2                        0x080008d5   Thumb Code     0  init.o(.text)
    _dsqrt                                   0x080008f9   Thumb Code   162  dsqrt.o(.text)
    ADCS_Reset                               0x0800099d   Thumb Code    38  adcs.o(i.ADCS_Reset)
    AcquireTelemetry                         0x080009d5   Thumb Code    60  edusat_system.o(i.AcquireTelemetry)
    ArduCam_Capture                          0x08000a2d   Thumb Code    56  arducam.o(i.ArduCam_Capture)
    ArduCam_Clear_FIFOFlag                   0x08000a69   Thumb Code     8  arducam.o(i.ArduCam_Clear_FIFOFlag)
    ArduCam_Enable_ManualExposureControl     0x08000a71   Thumb Code    12  arducam.o(i.ArduCam_Enable_ManualExposureControl)
    ArduCam_Flush_FIFO                       0x08000a7d   Thumb Code     8  arducam.o(i.ArduCam_Flush_FIFO)
    ArduCam_Get_ExposureTime                 0x08000a85   Thumb Code    76  arducam.o(i.ArduCam_Get_ExposureTime)
    ArduCam_Init                             0x08000ad1   Thumb Code   398  arducam.o(i.ArduCam_Init)
    ArduCam_ReadRegister                     0x08000c69   Thumb Code     8  arducam.o(i.ArduCam_ReadRegister)
    ArduCam_Read_ArduchipVersion             0x08000c71   Thumb Code    10  arducam.o(i.ArduCam_Read_ArduchipVersion)
    ArduCam_Read_CapturedPhoto               0x08000c7d   Thumb Code   116  arducam.o(i.ArduCam_Read_CapturedPhoto)
    ArduCam_Read_DeviceID                    0x08000cf9   Thumb Code    28  arducam.o(i.ArduCam_Read_DeviceID)
    ArduCam_Read_FIFO                        0x08000d15   Thumb Code    72  arducam.o(i.ArduCam_Read_FIFO)
    ArduCam_Read_FIFOSize                    0x08000d65   Thumb Code    50  arducam.o(i.ArduCam_Read_FIFOSize)
    ArduCam_RegisterUpdate                   0x08000d97   Thumb Code   118  arducam.o(i.ArduCam_RegisterUpdate)
    ArduCam_SWReset                          0x08000e0d   Thumb Code    24  arducam.o(i.ArduCam_SWReset)
    ArduCam_Send_CapturedPhoto               0x08000e25   Thumb Code   198  arducam.o(i.ArduCam_Send_CapturedPhoto)
    ArduCam_Set_Brightness                   0x08000ef9   Thumb Code   202  arducam.o(i.ArduCam_Set_Brightness)
    ArduCam_Set_CaptureFrameNumber           0x08000fc3   Thumb Code    26  arducam.o(i.ArduCam_Set_CaptureFrameNumber)
    ArduCam_Set_ColorSaturation              0x08000fdd   Thumb Code   260  arducam.o(i.ArduCam_Set_ColorSaturation)
    ArduCam_Set_CompressQuality              0x080010e1   Thumb Code    44  arducam.o(i.ArduCam_Set_CompressQuality)
    ArduCam_Set_Contrast                     0x0800110d   Thumb Code   366  arducam.o(i.ArduCam_Set_Contrast)
    ArduCam_Set_ExposureLevel                0x0800127b   Thumb Code   546  arducam.o(i.ArduCam_Set_ExposureLevel)
    ArduCam_Set_Hue                          0x0800149d   Thumb Code   484  arducam.o(i.ArduCam_Set_Hue)
    ArduCam_Set_JPEGSize                     0x08001681   Thumb Code    56  arducam.o(i.ArduCam_Set_JPEGSize)
    ArduCam_Set_LightMode                    0x080016d5   Thumb Code   564  arducam.o(i.ArduCam_Set_LightMode)
    ArduCam_Set_MirrorAndFlip                0x08001909   Thumb Code   194  arducam.o(i.ArduCam_Set_MirrorAndFlip)
    ArduCam_Set_PCLKValue                    0x080019cb   Thumb Code    36  arducam.o(i.ArduCam_Set_PCLKValue)
    ArduCam_Set_Sharpness                    0x080019ef   Thumb Code   288  arducam.o(i.ArduCam_Set_Sharpness)
    ArduCam_Set_SpecialEffect                0x08001b0f   Thumb Code   238  arducam.o(i.ArduCam_Set_SpecialEffect)
    ArduCam_StartCapture                     0x08001bfd   Thumb Code     8  arducam.o(i.ArduCam_StartCapture)
    ArduCam_WriteRegister                    0x08001c05   Thumb Code    16  arducam.o(i.ArduCam_WriteRegister)
    ArduChip_EnterStandby                    0x08001c15   Thumb Code    28  arducam.o(i.ArduChip_EnterStandby)
    ArduChip_ExitStandby                     0x08001c31   Thumb Code    28  arducam.o(i.ArduChip_ExitStandby)
    Arducam_InitExposure                     0x08001c4d   Thumb Code    46  arducam.o(i.Arducam_InitExposure)
    Arducam_Set_ExposureValue                0x08001c81   Thumb Code    82  arducam.o(i.Arducam_Set_ExposureValue)
    Arducam_Set_MaxLines                     0x08001cd3   Thumb Code    64  arducam.o(i.Arducam_Set_MaxLines)
    BMP085Calibration                        0x08001d15   Thumb Code   116  bmp085.o(i.BMP085Calibration)
    BMP085calculatePressure                  0x08001d8d   Thumb Code   144  bmp085.o(i.BMP085calculatePressure)
    BMP085calculateTemperature               0x08001e25   Thumb Code    38  bmp085.o(i.BMP085calculateTemperature)
    BMP085readCalibration                    0x08001e51   Thumb Code    90  bmp085.o(i.BMP085readCalibration)
    BMP085readUP                             0x08001ead   Thumb Code   184  bmp085.o(i.BMP085readUP)
    BMP085readUT                             0x08001f69   Thumb Code    64  bmp085.o(i.BMP085readUT)
    Blink                                    0x08001fad   Thumb Code    28  edusat_system.o(i.Blink)
    BusFault_Handler                         0x08001fcd   Thumb Code     2  stm32f4xx_it.o(i.BusFault_Handler)
    ConfigureHMC5883L                        0x08001fd1   Thumb Code    76  hmc5883l.o(i.ConfigureHMC5883L)
    DebugMon_Handler                         0x08002035   Thumb Code     2  stm32f4xx_it.o(i.DebugMon_Handler)
    EDUSAT_Init                              0x08002039   Thumb Code   116  edusat_system.o(i.EDUSAT_Init)
    EPS_Reset                                0x080020bd   Thumb Code    38  eps.o(i.EPS_Reset)
    FATFS_LinkDriver                         0x080020f5   Thumb Code     6  ff_gen_drv.o(i.FATFS_LinkDriver)
    FATFS_LinkDriverEx                       0x080020fd   Thumb Code    58  ff_gen_drv.o(i.FATFS_LinkDriverEx)
    GetRW                                    0x0800213d   Thumb Code    48  adcs.o(i.GetRW)
    GetX                                     0x08002175   Thumb Code    64  hmc5883l.o(i.GetX)
    GetY                                     0x080021c1   Thumb Code    56  hmc5883l.o(i.GetY)
    GetZ                                     0x08002205   Thumb Code    56  hmc5883l.o(i.GetZ)
    HAL_DMA_Abort_IT                         0x08002249   Thumb Code    36  stm32f4xx_hal_dma.o(i.HAL_DMA_Abort_IT)
    HAL_Delay                                0x0800226d   Thumb Code    32  stm32f4xx_hal.o(i.HAL_Delay)
    HAL_GPIO_Init                            0x08002291   Thumb Code   388  stm32f4xx_hal_gpio.o(i.HAL_GPIO_Init)
    HAL_GPIO_TogglePin                       0x08002441   Thumb Code    14  stm32f4xx_hal_gpio.o(i.HAL_GPIO_TogglePin)
    HAL_GPIO_WritePin                        0x0800244f   Thumb Code    10  stm32f4xx_hal_gpio.o(i.HAL_GPIO_WritePin)
    HAL_GetTick                              0x08002459   Thumb Code     6  stm32f4xx_hal.o(i.HAL_GetTick)
    HAL_I2C_Init                             0x08002465   Thumb Code   356  stm32f4xx_hal_i2c.o(i.HAL_I2C_Init)
    HAL_I2C_IsDeviceReady                    0x080025d9   Thumb Code   336  stm32f4xx_hal_i2c.o(i.HAL_I2C_IsDeviceReady)
    HAL_I2C_Master_Receive                   0x08002731   Thumb Code   468  stm32f4xx_hal_i2c.o(i.HAL_I2C_Master_Receive)
    HAL_I2C_Master_Transmit                  0x08002911   Thumb Code   290  stm32f4xx_hal_i2c.o(i.HAL_I2C_Master_Transmit)
    HAL_I2C_Mem_Read                         0x08002a3d   Thumb Code   490  stm32f4xx_hal_i2c.o(i.HAL_I2C_Mem_Read)
    HAL_I2C_Mem_Write                        0x08002c35   Thumb Code   294  stm32f4xx_hal_i2c.o(i.HAL_I2C_Mem_Write)
    HAL_I2C_MspInit                          0x08002d65   Thumb Code   190  stm32f4xx_hal_msp.o(i.HAL_I2C_MspInit)
    HAL_IncTick                              0x08002e3d   Thumb Code    12  stm32f4xx_hal.o(i.HAL_IncTick)
    HAL_Init                                 0x08002e4d   Thumb Code    48  stm32f4xx_hal.o(i.HAL_Init)
    HAL_InitTick                             0x08002e81   Thumb Code    54  stm32f4xx_hal.o(i.HAL_InitTick)
    HAL_MspInit                              0x08002ec1   Thumb Code    42  stm32f4xx_hal_msp.o(i.HAL_MspInit)
    HAL_NVIC_EnableIRQ                       0x08002ef1   Thumb Code    26  stm32f4xx_hal_cortex.o(i.HAL_NVIC_EnableIRQ)
    HAL_NVIC_SetPriority                     0x08002f0d   Thumb Code    60  stm32f4xx_hal_cortex.o(i.HAL_NVIC_SetPriority)
    HAL_NVIC_SetPriorityGrouping             0x08002f4d   Thumb Code    26  stm32f4xx_hal_cortex.o(i.HAL_NVIC_SetPriorityGrouping)
    HAL_NVIC_SystemReset                     0x08002f71   Thumb Code    26  stm32f4xx_hal_cortex.o(i.HAL_NVIC_SystemReset)
    HAL_RCC_ClockConfig                      0x08002f95   Thumb Code   286  stm32f4xx_hal_rcc.o(i.HAL_RCC_ClockConfig)
    HAL_RCC_GetPCLK1Freq                     0x080030c5   Thumb Code    20  stm32f4xx_hal_rcc.o(i.HAL_RCC_GetPCLK1Freq)
    HAL_RCC_GetPCLK2Freq                     0x080030e5   Thumb Code    20  stm32f4xx_hal_rcc.o(i.HAL_RCC_GetPCLK2Freq)
    HAL_RCC_GetSysClockFreq                  0x08003105   Thumb Code    88  stm32f4xx_hal_rcc.o(i.HAL_RCC_GetSysClockFreq)
    HAL_RCC_OscConfig                        0x08003169   Thumb Code   770  stm32f4xx_hal_rcc.o(i.HAL_RCC_OscConfig)
    HAL_SPI_GetState                         0x08003485   Thumb Code     6  stm32f4xx_hal_spi.o(i.HAL_SPI_GetState)
    HAL_SPI_Init                             0x0800348b   Thumb Code   128  stm32f4xx_hal_spi.o(i.HAL_SPI_Init)
    HAL_SPI_MspInit                          0x0800350d   Thumb Code   210  stm32f4xx_hal_msp.o(i.HAL_SPI_MspInit)
    HAL_SPI_Receive                          0x080035f5   Thumb Code   336  stm32f4xx_hal_spi.o(i.HAL_SPI_Receive)
    HAL_SPI_Transmit                         0x08003745   Thumb Code   348  stm32f4xx_hal_spi.o(i.HAL_SPI_Transmit)
    HAL_SPI_TransmitReceive                  0x080038a1   Thumb Code   482  stm32f4xx_hal_spi.o(i.HAL_SPI_TransmitReceive)
    HAL_SYSTICK_Callback                     0x08003a83   Thumb Code     2  stm32f4xx_hal_cortex.o(i.HAL_SYSTICK_Callback)
    HAL_SYSTICK_Config                       0x08003a85   Thumb Code    40  stm32f4xx_hal_cortex.o(i.HAL_SYSTICK_Config)
    HAL_SYSTICK_IRQHandler                   0x08003aad   Thumb Code     8  stm32f4xx_hal_cortex.o(i.HAL_SYSTICK_IRQHandler)
    HAL_UART_AbortReceiveCpltCallback        0x08003ab5   Thumb Code     2  stm32f4xx_hal_uart.o(i.HAL_UART_AbortReceiveCpltCallback)
    HAL_UART_AbortReceive_IT                 0x08003ab9   Thumb Code    88  stm32f4xx_hal_uart.o(i.HAL_UART_AbortReceive_IT)
    HAL_UART_ErrorCallback                   0x08003b15   Thumb Code     2  stm32f4xx_hal_uart.o(i.HAL_UART_ErrorCallback)
    HAL_UART_IRQHandler                      0x08003b19   Thumb Code   266  stm32f4xx_hal_uart.o(i.HAL_UART_IRQHandler)
    HAL_UART_Init                            0x08003c29   Thumb Code    98  stm32f4xx_hal_uart.o(i.HAL_UART_Init)
    HAL_UART_MspInit                         0x08003c8d   Thumb Code   106  stm32f4xx_hal_msp.o(i.HAL_UART_MspInit)
    HAL_UART_Receive_IT                      0x08003d05   Thumb Code    82  stm32f4xx_hal_uart.o(i.HAL_UART_Receive_IT)
    HAL_UART_RxCpltCallback                  0x08003d57   Thumb Code     2  stm32f4xx_hal_uart.o(i.HAL_UART_RxCpltCallback)
    HAL_UART_Transmit                        0x08003d59   Thumb Code   186  stm32f4xx_hal_uart.o(i.HAL_UART_Transmit)
    HAL_UART_Transmit_IT                     0x08003e13   Thumb Code    62  stm32f4xx_hal_uart.o(i.HAL_UART_Transmit_IT)
    HAL_UART_TxCpltCallback                  0x08003e51   Thumb Code     2  stm32f4xx_hal_uart.o(i.HAL_UART_TxCpltCallback)
    HardFault_Handler                        0x08003e53   Thumb Code     2  stm32f4xx_it.o(i.HardFault_Handler)
    MX_FATFS_Init                            0x08004359   Thumb Code    18  fatfs.o(i.MX_FATFS_Init)
    MemManage_Handler                        0x08004549   Thumb Code     2  stm32f4xx_it.o(i.MemManage_Handler)
    NMI_Handler                              0x0800454b   Thumb Code     2  stm32f4xx_it.o(i.NMI_Handler)
    OpenAntennas                             0x0800454d   Thumb Code    38  eps.o(i.OpenAntennas)
    PendSV_Handler                           0x08004585   Thumb Code     2  stm32f4xx_it.o(i.PendSV_Handler)
    SDTimer_Handler                          0x08004589   Thumb Code    26  stm32f4xx_it.o(i.SDTimer_Handler)
    SD_CloseFile                             0x080045a9   Thumb Code    20  sdlibrary.o(i.SD_CloseFile)
    SD_Deinit                                0x080045bd   Thumb Code    20  sdlibrary.o(i.SD_Deinit)
    SD_Init                                  0x080045d5   Thumb Code   128  sdlibrary.o(i.SD_Init)
    SD_MPU6050_Init                          0x08004661   Thumb Code   160  sd_hal_mpu6050.o(i.SD_MPU6050_Init)
    SD_MPU6050_ReadAccelerometer             0x08004701   Thumb Code    88  sd_hal_mpu6050.o(i.SD_MPU6050_ReadAccelerometer)
    SD_MPU6050_ReadGyroscope                 0x08004759   Thumb Code    88  sd_hal_mpu6050.o(i.SD_MPU6050_ReadGyroscope)
    SD_MPU6050_SetAccelerometer              0x080047b1   Thumb Code   142  sd_hal_mpu6050.o(i.SD_MPU6050_SetAccelerometer)
    SD_MPU6050_SetDataRate                   0x08004851   Thumb Code    40  sd_hal_mpu6050.o(i.SD_MPU6050_SetDataRate)
    SD_MPU6050_SetGyroscope                  0x08004879   Thumb Code   142  sd_hal_mpu6050.o(i.SD_MPU6050_SetGyroscope)
    SD_MPU6050_setBypass                     0x08004919   Thumb Code   112  sd_hal_mpu6050.o(i.SD_MPU6050_setBypass)
    SD_OpenFile                              0x08004989   Thumb Code    28  sdlibrary.o(i.SD_OpenFile)
    SD_PrepareFile                           0x08004a15   Thumb Code   166  sdlibrary.o(i.SD_PrepareFile)
    SD_Read                                  0x08004ad9   Thumb Code   106  sdlibrary.o(i.SD_Read)
    SD_Write_Byte                            0x08004c8f   Thumb Code    20  sdlibrary.o(i.SD_Write_Byte)
    SD_Write_String                          0x08004ca3   Thumb Code    32  sdlibrary.o(i.SD_Write_String)
    SD_disk_initialize                       0x08004cc5   Thumb Code   304  fatfs_sd.o(i.SD_disk_initialize)
    SD_disk_ioctl                            0x08004dfd   Thumb Code   318  fatfs_sd.o(i.SD_disk_ioctl)
    SD_disk_read                             0x08004f41   Thumb Code   146  fatfs_sd.o(i.SD_disk_read)
    SD_disk_status                           0x08004fd9   Thumb Code    12  fatfs_sd.o(i.SD_disk_status)
    SD_disk_write                            0x08004fe9   Thumb Code   178  fatfs_sd.o(i.SD_disk_write)
    SVC_Handler                              0x0800524d   Thumb Code     2  stm32f4xx_it.o(i.SVC_Handler)
    SaveToSD                                 0x08005251   Thumb Code    56  edusat_system.o(i.SaveToSD)
    SendError                                0x0800528d   Thumb Code    10  edusat_system.o(i.SendError)
    SetAntennaBurnDuration                   0x0800529d   Thumb Code    42  eps.o(i.SetAntennaBurnDuration)
    SetRW                                    0x080052d1   Thumb Code    46  adcs.o(i.SetRW)
    SysTick_Handler                          0x08005305   Thumb Code    36  stm32f4xx_it.o(i.SysTick_Handler)
    SystemClock_Config                       0x0800532d   Thumb Code   116  edusat_system.o(i.SystemClock_Config)
    SystemInit                               0x080053a9   Thumb Code    66  system_stm32f4xx.o(i.SystemInit)
    TakePhoto                                0x080053fd   Thumb Code   112  edusat_system.o(i.TakePhoto)
    UART4_IRQHandler                         0x08005475   Thumb Code    22  stm32f4xx_it.o(i.UART4_IRQHandler)
    USER_initialize                          0x080058df   Thumb Code     4  user_diskio.o(i.USER_initialize)
    USER_ioctl                               0x080058e3   Thumb Code     4  user_diskio.o(i.USER_ioctl)
    USER_read                                0x080058e7   Thumb Code     4  user_diskio.o(i.USER_read)
    USER_status                              0x080058eb   Thumb Code     4  user_diskio.o(i.USER_status)
    USER_write                               0x080058ef   Thumb Code     4  user_diskio.o(i.USER_write)
    UsageFault_Handler                       0x080058f3   Thumb Code     2  stm32f4xx_it.o(i.UsageFault_Handler)
    Use_BMP                                  0x080058f5   Thumb Code   120  edusat_sensors.o(i.Use_BMP)
    Use_MPU                                  0x08005999   Thumb Code   306  edusat_sensors.o(i.Use_MPU)
    Use_Magneto                              0x08005b19   Thumb Code    74  edusat_sensors.o(i.Use_Magneto)
    __0sprintf                               0x08005b71   Thumb Code    34  printfa.o(i.__0sprintf)
    __1sprintf                               0x08005b71   Thumb Code     0  printfa.o(i.__0sprintf)
    __2sprintf                               0x08005b71   Thumb Code     0  printfa.o(i.__0sprintf)
    __c89sprintf                             0x08005b71   Thumb Code     0  printfa.o(i.__0sprintf)
    sprintf                                  0x08005b71   Thumb Code     0  printfa.o(i.__0sprintf)
    __ARM_fpclassify                         0x08005b99   Thumb Code    48  fpclassify.o(i.__ARM_fpclassify)
    __hardfp_pow                             0x08005be9   Thumb Code  3072  pow.o(i.__hardfp_pow)
    __kernel_poly                            0x08006839   Thumb Code   248  poly.o(i.__kernel_poly)
    __mathlib_dbl_divzero                    0x08006931   Thumb Code    28  dunder.o(i.__mathlib_dbl_divzero)
    __mathlib_dbl_infnan2                    0x08006961   Thumb Code    20  dunder.o(i.__mathlib_dbl_infnan2)
    __mathlib_dbl_invalid                    0x08006979   Thumb Code    24  dunder.o(i.__mathlib_dbl_invalid)
    __mathlib_dbl_overflow                   0x08006999   Thumb Code    24  dunder.o(i.__mathlib_dbl_overflow)
    __mathlib_dbl_underflow                  0x080069b9   Thumb Code    24  dunder.o(i.__mathlib_dbl_underflow)
    __scatterload_copy                       0x080069d9   Thumb Code    14  handlers.o(i.__scatterload_copy)
    __scatterload_null                       0x080069e7   Thumb Code     2  handlers.o(i.__scatterload_null)
    __scatterload_zeroinit                   0x080069e9   Thumb Code    14  handlers.o(i.__scatterload_zeroinit)
    __set_errno                              0x080069f9   Thumb Code     6  errno.o(i.__set_errno)
    clearbuffer                              0x080073bd   Thumb Code    38  edusat_system.o(i.clearbuffer)
    convertToInt16                           0x080074ad   Thumb Code    48  edusat_system.o(i.convertToInt16)
    disk_initialize                          0x08007c05   Thumb Code    36  diskio.o(i.disk_initialize)
    disk_ioctl                               0x08007c2d   Thumb Code    24  diskio.o(i.disk_ioctl)
    disk_read                                0x08007c49   Thumb Code    24  diskio.o(i.disk_read)
    disk_status                              0x08007c65   Thumb Code    18  diskio.o(i.disk_status)
    disk_write                               0x08007c7d   Thumb Code    24  diskio.o(i.disk_write)
    f_close                                  0x08007c99   Thumb Code    40  ff.o(i.f_close)
    f_getfree                                0x08007cc1   Thumb Code   212  ff.o(i.f_getfree)
    f_gets                                   0x08007d95   Thumb Code    72  ff.o(i.f_gets)
    f_mount                                  0x08007ddd   Thumb Code    84  ff.o(i.f_mount)
    f_open                                   0x08007e35   Thumb Code   534  ff.o(i.f_open)
    f_putc                                   0x08008051   Thumb Code    30  ff.o(i.f_putc)
    f_puts                                   0x0800806f   Thumb Code    38  ff.o(i.f_puts)
    f_read                                   0x08008095   Thumb Code   374  ff.o(i.f_read)
    f_sync                                   0x0800820b   Thumb Code   142  ff.o(i.f_sync)
    f_write                                  0x08008299   Thumb Code   434  ff.o(i.f_write)
    fabs                                     0x0800844b   Thumb Code    24  fabs.o(i.fabs)
    ff_convert                               0x08008465   Thumb Code    52  ccsbcs.o(i.ff_convert)
    ff_wtoupper                              0x0800849d   Thumb Code   120  ccsbcs.o(i.ff_wtoupper)
    getEPSdata                               0x080088a9   Thumb Code    26  eps.o(i.getEPSdata)
    getLDRdata                               0x080088cd   Thumb Code    26  adcs.o(i.getLDRdata)
    getSensorData                            0x080088f1   Thumb Code   168  edusat_sensors.o(i.getSensorData)
    get_fattime                              0x08008ab1   Thumb Code     4  fatfs.o(i.get_fattime)
    main                                     0x08008bb9   Thumb Code   524  main.o(i.main)
    power                                    0x08008e75   Thumb Code    22  edusat_system.o(i.power)
    readI2CMaster                            0x08009015   Thumb Code    24  arducam.o(i.readI2CMaster)
    readI2CMasterByte                        0x08009031   Thumb Code    26  arducam.o(i.readI2CMasterByte)
    readSPImaster                            0x08009051   Thumb Code    62  arducam.o(i.readSPImaster)
    sqrt                                     0x0800910d   Thumb Code   110  sqrt.o(i.sqrt)
    writeI2CMaster                           0x080092e5   Thumb Code    22  arducam.o(i.writeI2CMaster)
    writeI2CMasterByte                       0x08009301   Thumb Code    30  arducam.o(i.writeI2CMasterByte)
    writeSPImaster                           0x08009325   Thumb Code    48  arducam.o(i.writeSPImaster)
    OV5642_JPEG_Capture_QSXGA                0x0800935c   Data         260  ov5642_regs.o(.constdata)
    ov5642_320x240                           0x08009460   Data         108  ov5642_regs.o(.constdata)
    ov5642_640x480                           0x080094cc   Data         108  ov5642_regs.o(.constdata)
    ov5642_1024x768                          0x08009538   Data         104  ov5642_regs.o(.constdata)
    ov5642_1280x960                          0x080095a0   Data         104  ov5642_regs.o(.constdata)
    ov5642_1600x1200                         0x08009608   Data         104  ov5642_regs.o(.constdata)
    ov5642_2048x1536                         0x08009670   Data         232  ov5642_regs.o(.constdata)
    ov5642_2592x1944                         0x08009758   Data         104  ov5642_regs.o(.constdata)
    OV5642_QVGA_Preview                      0x080097c0   Data        2336  ov5642_regs.o(.constdata)
    AHBPrescTable                            0x0800a0ea   Data          16  system_stm32f4xx.o(.constdata)
    APBPrescTable                            0x0800a0fa   Data           8  system_stm32f4xx.o(.constdata)
    __mathlib_zero                           0x0800a5e8   Data           8  qnan.o(.constdata)
    Region$$Table$$Base                      0x0800a5f0   Number         0  anon$$obj.o(Region$$Table)
    Region$$Table$$Limit                     0x0800a610   Number         0  anon$$obj.o(Region$$Table)
    period                                   0x20000000   Data           2  main.o(.data)
    timepassed                               0x20000004   Data           4  main.o(.data)
    control                                  0x20000008   Data           4  main.o(.data)
    USER_Driver                              0x2000000c   Data          20  user_diskio.o(.data)
    retUSER                                  0x20000020   Data           1  fatfs.o(.data)
    USERPath                                 0x20000021   Data           4  fatfs.o(.data)
    FatFsCnt                                 0x20000025   Data           1  stm32f4xx_it.o(.data)
    Timer1                                   0x20000026   Data           1  stm32f4xx_it.o(.data)
    Timer2                                   0x20000027   Data           1  stm32f4xx_it.o(.data)
    ac1                                      0x20000028   Data           2  bmp085.o(.data)
    ac2                                      0x2000002a   Data           2  bmp085.o(.data)
    ac3                                      0x2000002c   Data           2  bmp085.o(.data)
    ac4                                      0x2000002e   Data           2  bmp085.o(.data)
    ac5                                      0x20000030   Data           2  bmp085.o(.data)
    ac6                                      0x20000032   Data           2  bmp085.o(.data)
    b1                                       0x20000034   Data           2  bmp085.o(.data)
    b2                                       0x20000036   Data           2  bmp085.o(.data)
    mb                                       0x20000038   Data           2  bmp085.o(.data)
    mc                                       0x2000003a   Data           2  bmp085.o(.data)
    md                                       0x2000003c   Data           2  bmp085.o(.data)
    ut                                       0x2000003e   Data           2  bmp085.o(.data)
    OSS                                      0x20000040   Data           4  bmp085.o(.data)
    b5                                       0x20000044   Data           4  bmp085.o(.data)
    RegSettingA                              0x2000004b   Data           1  hmc5883l.o(.data)
    RegSettingB                              0x2000004c   Data           1  hmc5883l.o(.data)
    RegSettingMR                             0x2000004d   Data           1  hmc5883l.o(.data)
    DataX                                    0x2000004e   Data           2  hmc5883l.o(.data)
    DataY                                    0x20000050   Data           2  hmc5883l.o(.data)
    DataZ                                    0x20000052   Data           2  hmc5883l.o(.data)
    ldr                                      0x20000054   Data          25  adcs.o(.data)
    epsdata                                  0x2000006d   Data          26  eps.o(.data)
    systemstatus                             0x20000087   Data           1  edusat_system.o(.data)
    buff                                     0x20000088   Data           7  edusat_system.o(.data)
    uwTickFreq                               0x20000090   Data           1  stm32f4xx_hal.o(.data)
    uwTickPrio                               0x20000094   Data           4  stm32f4xx_hal.o(.data)
    uwTick                                   0x20000098   Data           4  stm32f4xx_hal.o(.data)
    SystemCoreClock                          0x2000009c   Data           4  system_stm32f4xx.o(.data)
    telemetry                                0x200000ac   Data         140  main.o(.bss)
    Cam1                                     0x20000138   Data          36  arducam.o(.bss)
    mpu1                                     0x2000025c   Data          28  sd_hal_mpu6050.o(.bss)
    sd1                                      0x20000278   Data       12656  sdlibrary.o(.bss)
    hi2c1                                    0x200033e8   Data          84  edusat_system.o(.bss)
    hi2c3                                    0x2000343c   Data          84  edusat_system.o(.bss)
    hspi2                                    0x20003490   Data          88  edusat_system.o(.bss)
    hspi3                                    0x200034e8   Data          88  edusat_system.o(.bss)
    huart4                                   0x20003540   Data          64  edusat_system.o(.bss)
    GY87                                     0x20003580   Data          44  edusat_sensors.o(.bss)
    sensors                                  0x200035ac   Data          81  edusat_sensors.o(.bss)
    disk                                     0x20003820   Data          12  ff_gen_drv.o(.bss)
    __initial_sp                             0x20003c30   Data           0  startup_stm32f407xx.o(STACK)



==============================================================================

Memory Map of the image

  Image Entry point : 0x08000189

  Load Region LR_IROM1 (Base: 0x08000000, Size: 0x0000a6bc, Max: 0x00080000, ABSOLUTE)

    Execution Region ER_IROM1 (Exec base: 0x08000000, Load base: 0x08000000, Size: 0x0000a610, Max: 0x00080000, ABSOLUTE)

    Exec Addr    Load Addr    Size         Type   Attr      Idx    E Section Name        Object

    0x08000000   0x08000000   0x00000188   Data   RO            3    RESET               startup_stm32f407xx.o
    0x08000188   0x08000188   0x00000000   Code   RO         4212  * .ARM.Collect$$$$00000000  mc_w.l(entry.o)
    0x08000188   0x08000188   0x00000004   Code   RO         4541    .ARM.Collect$$$$00000001  mc_w.l(entry2.o)
    0x0800018c   0x0800018c   0x00000004   Code   RO         4544    .ARM.Collect$$$$00000004  mc_w.l(entry5.o)
    0x08000190   0x08000190   0x00000000   Code   RO         4546    .ARM.Collect$$$$00000008  mc_w.l(entry7b.o)
    0x08000190   0x08000190   0x00000000   Code   RO         4548    .ARM.Collect$$$$0000000A  mc_w.l(entry8b.o)
    0x08000190   0x08000190   0x00000008   Code   RO         4549    .ARM.Collect$$$$0000000B  mc_w.l(entry9a.o)
    0x08000198   0x08000198   0x00000000   Code   RO         4551    .ARM.Collect$$$$0000000D  mc_w.l(entry10a.o)
    0x08000198   0x08000198   0x00000000   Code   RO         4553    .ARM.Collect$$$$0000000F  mc_w.l(entry11a.o)
    0x08000198   0x08000198   0x00000004   Code   RO         4542    .ARM.Collect$$$$00002712  mc_w.l(entry2.o)
    0x0800019c   0x0800019c   0x00000024   Code   RO            4    .text               startup_stm32f407xx.o
    0x080001c0   0x080001c0   0x00000062   Code   RO         4215    .text               mc_w.l(uldiv.o)
    0x08000222   0x08000222   0x00000024   Code   RO         4217    .text               mc_w.l(memseta.o)
    0x08000246   0x08000246   0x0000000e   Code   RO         4219    .text               mc_w.l(strlen.o)
    0x08000254   0x08000254   0x00000012   Code   RO         4221    .text               mc_w.l(strcpy.o)
    0x08000266   0x08000266   0x0000001e   Code   RO         4223    .text               mc_w.l(strncmp.o)
    0x08000284   0x08000284   0x0000014e   Code   RO         4486    .text               mf_w.l(dadd.o)
    0x080003d2   0x080003d2   0x000000e4   Code   RO         4488    .text               mf_w.l(dmul.o)
    0x080004b6   0x080004b6   0x000000de   Code   RO         4490    .text               mf_w.l(ddiv.o)
    0x08000594   0x08000594   0x00000022   Code   RO         4492    .text               mf_w.l(dflti.o)
    0x080005b6   0x080005b6   0x0000001a   Code   RO         4494    .text               mf_w.l(dfltui.o)
    0x080005d0   0x080005d0   0x00000032   Code   RO         4496    .text               mf_w.l(dfixui.o)
    0x08000602   0x08000602   0x00000026   Code   RO         4498    .text               mf_w.l(f2d.o)
    0x08000628   0x08000628   0x00000030   Code   RO         4500    .text               mf_w.l(cdcmple.o)
    0x08000658   0x08000658   0x00000038   Code   RO         4502    .text               mf_w.l(d2f.o)
    0x08000690   0x08000690   0x0000002c   Code   RO         4558    .text               mc_w.l(uidiv.o)
    0x080006bc   0x080006bc   0x0000001e   Code   RO         4560    .text               mc_w.l(llshl.o)
    0x080006da   0x080006da   0x00000020   Code   RO         4562    .text               mc_w.l(llushr.o)
    0x080006fa   0x080006fa   0x00000024   Code   RO         4564    .text               mc_w.l(llsshr.o)
    0x0800071e   0x0800071e   0x00000000   Code   RO         4573    .text               mc_w.l(iusefp.o)
    0x0800071e   0x0800071e   0x0000006e   Code   RO         4574    .text               mf_w.l(fepilogue.o)
    0x0800078c   0x0800078c   0x000000ba   Code   RO         4576    .text               mf_w.l(depilogue.o)
    0x08000846   0x08000846   0x0000002e   Code   RO         4580    .text               mf_w.l(dscalb.o)
    0x08000874   0x08000874   0x00000030   Code   RO         4582    .text               mf_w.l(dfixul.o)
    0x080008a4   0x080008a4   0x00000030   Code   RO         4584    .text               mf_w.l(cdrcmple.o)
    0x080008d4   0x080008d4   0x00000024   Code   RO         4586    .text               mc_w.l(init.o)
    0x080008f8   0x080008f8   0x000000a2   Code   RO         4590    .text               mf_w.l(dsqrt.o)
    0x0800099a   0x0800099a   0x00000002   PAD
    0x0800099c   0x0800099c   0x00000038   Code   RO         1179    i.ADCS_Reset        adcs.o
    0x080009d4   0x080009d4   0x00000058   Code   RO         1278    i.AcquireTelemetry  edusat_system.o
    0x08000a2c   0x08000a2c   0x0000003c   Code   RO          463    i.ArduCam_Capture   arducam.o
    0x08000a68   0x08000a68   0x00000008   Code   RO          464    i.ArduCam_Clear_FIFOFlag  arducam.o
    0x08000a70   0x08000a70   0x0000000c   Code   RO          465    i.ArduCam_Enable_ManualExposureControl  arducam.o
    0x08000a7c   0x08000a7c   0x00000008   Code   RO          466    i.ArduCam_Flush_FIFO  arducam.o
    0x08000a84   0x08000a84   0x0000004c   Code   RO          467    i.ArduCam_Get_ExposureTime  arducam.o
    0x08000ad0   0x08000ad0   0x00000198   Code   RO          470    i.ArduCam_Init      arducam.o
    0x08000c68   0x08000c68   0x00000008   Code   RO          471    i.ArduCam_ReadRegister  arducam.o
    0x08000c70   0x08000c70   0x0000000a   Code   RO          472    i.ArduCam_Read_ArduchipVersion  arducam.o
    0x08000c7a   0x08000c7a   0x00000002   PAD
    0x08000c7c   0x08000c7c   0x0000007c   Code   RO          473    i.ArduCam_Read_CapturedPhoto  arducam.o
    0x08000cf8   0x08000cf8   0x0000001c   Code   RO          474    i.ArduCam_Read_DeviceID  arducam.o
    0x08000d14   0x08000d14   0x00000050   Code   RO          475    i.ArduCam_Read_FIFO  arducam.o
    0x08000d64   0x08000d64   0x00000032   Code   RO          476    i.ArduCam_Read_FIFOSize  arducam.o
    0x08000d96   0x08000d96   0x00000076   Code   RO          477    i.ArduCam_RegisterUpdate  arducam.o
    0x08000e0c   0x08000e0c   0x00000018   Code   RO          479    i.ArduCam_SWReset   arducam.o
    0x08000e24   0x08000e24   0x000000d4   Code   RO          480    i.ArduCam_Send_CapturedPhoto  arducam.o
    0x08000ef8   0x08000ef8   0x000000ca   Code   RO          481    i.ArduCam_Set_Brightness  arducam.o
    0x08000fc2   0x08000fc2   0x0000001a   Code   RO          482    i.ArduCam_Set_CaptureFrameNumber  arducam.o
    0x08000fdc   0x08000fdc   0x00000104   Code   RO          483    i.ArduCam_Set_ColorSaturation  arducam.o
    0x080010e0   0x080010e0   0x0000002c   Code   RO          484    i.ArduCam_Set_CompressQuality  arducam.o
    0x0800110c   0x0800110c   0x0000016e   Code   RO          485    i.ArduCam_Set_Contrast  arducam.o
    0x0800127a   0x0800127a   0x00000222   Code   RO          486    i.ArduCam_Set_ExposureLevel  arducam.o
    0x0800149c   0x0800149c   0x000001e4   Code   RO          488    i.ArduCam_Set_Hue   arducam.o
    0x08001680   0x08001680   0x00000054   Code   RO          489    i.ArduCam_Set_JPEGSize  arducam.o
    0x080016d4   0x080016d4   0x00000234   Code   RO          490    i.ArduCam_Set_LightMode  arducam.o
    0x08001908   0x08001908   0x000000c2   Code   RO          491    i.ArduCam_Set_MirrorAndFlip  arducam.o
    0x080019ca   0x080019ca   0x00000024   Code   RO          492    i.ArduCam_Set_PCLKValue  arducam.o
    0x080019ee   0x080019ee   0x00000120   Code   RO          493    i.ArduCam_Set_Sharpness  arducam.o
    0x08001b0e   0x08001b0e   0x000000ee   Code   RO          494    i.ArduCam_Set_SpecialEffect  arducam.o
    0x08001bfc   0x08001bfc   0x00000008   Code   RO          496    i.ArduCam_StartCapture  arducam.o
    0x08001c04   0x08001c04   0x00000010   Code   RO          497    i.ArduCam_WriteRegister  arducam.o
    0x08001c14   0x08001c14   0x0000001c   Code   RO          498    i.ArduChip_EnterStandby  arducam.o
    0x08001c30   0x08001c30   0x0000001c   Code   RO          499    i.ArduChip_ExitStandby  arducam.o
    0x08001c4c   0x08001c4c   0x00000034   Code   RO          500    i.Arducam_InitExposure  arducam.o
    0x08001c80   0x08001c80   0x00000052   Code   RO          501    i.Arducam_Set_ExposureValue  arducam.o
    0x08001cd2   0x08001cd2   0x00000040   Code   RO          502    i.Arducam_Set_MaxLines  arducam.o
    0x08001d12   0x08001d12   0x00000002   PAD
    0x08001d14   0x08001d14   0x00000078   Code   RO          764    i.BMP085Calibration  bmp085.o
    0x08001d8c   0x08001d8c   0x00000098   Code   RO          765    i.BMP085calculatePressure  bmp085.o
    0x08001e24   0x08001e24   0x0000002c   Code   RO          766    i.BMP085calculateTemperature  bmp085.o
    0x08001e50   0x08001e50   0x0000005a   Code   RO          767    i.BMP085readCalibration  bmp085.o
    0x08001eaa   0x08001eaa   0x00000002   PAD
    0x08001eac   0x08001eac   0x000000bc   Code   RO          768    i.BMP085readUP      bmp085.o
    0x08001f68   0x08001f68   0x00000044   Code   RO          769    i.BMP085readUT      bmp085.o
    0x08001fac   0x08001fac   0x00000020   Code   RO         1279    i.Blink             edusat_system.o
    0x08001fcc   0x08001fcc   0x00000002   Code   RO          309    i.BusFault_Handler  stm32f4xx_it.o
    0x08001fce   0x08001fce   0x00000002   PAD
    0x08001fd0   0x08001fd0   0x00000054   Code   RO          917    i.ConfigureHMC5883L  hmc5883l.o
    0x08002024   0x08002024   0x00000010   Code   RO          821    i.DESELECT          fatfs_sd.o
    0x08002034   0x08002034   0x00000002   Code   RO          310    i.DebugMon_Handler  stm32f4xx_it.o
    0x08002036   0x08002036   0x00000002   PAD
    0x08002038   0x08002038   0x00000084   Code   RO         1280    i.EDUSAT_Init       edusat_system.o
    0x080020bc   0x080020bc   0x00000038   Code   RO         1228    i.EPS_Reset         eps.o
    0x080020f4   0x080020f4   0x00000006   Code   RO         4128    i.FATFS_LinkDriver  ff_gen_drv.o
    0x080020fa   0x080020fa   0x00000002   PAD
    0x080020fc   0x080020fc   0x00000040   Code   RO         4129    i.FATFS_LinkDriverEx  ff_gen_drv.o
    0x0800213c   0x0800213c   0x00000038   Code   RO         1180    i.GetRW             adcs.o
    0x08002174   0x08002174   0x0000004c   Code   RO          918    i.GetX              hmc5883l.o
    0x080021c0   0x080021c0   0x00000044   Code   RO          919    i.GetY              hmc5883l.o
    0x08002204   0x08002204   0x00000044   Code   RO          920    i.GetZ              hmc5883l.o
    0x08002248   0x08002248   0x00000024   Code   RO         3039    i.HAL_DMA_Abort_IT  stm32f4xx_hal_dma.o
    0x0800226c   0x0800226c   0x00000024   Code   RO         3457    i.HAL_Delay         stm32f4xx_hal.o
    0x08002290   0x08002290   0x000001b0   Code   RO         2931    i.HAL_GPIO_Init     stm32f4xx_hal_gpio.o
    0x08002440   0x08002440   0x0000000e   Code   RO         2934    i.HAL_GPIO_TogglePin  stm32f4xx_hal_gpio.o
    0x0800244e   0x0800244e   0x0000000a   Code   RO         2935    i.HAL_GPIO_WritePin  stm32f4xx_hal_gpio.o
    0x08002458   0x08002458   0x0000000c   Code   RO         3463    i.HAL_GetTick       stm32f4xx_hal.o
    0x08002464   0x08002464   0x00000174   Code   RO         1463    i.HAL_I2C_Init      stm32f4xx_hal_i2c.o
    0x080025d8   0x080025d8   0x00000158   Code   RO         1464    i.HAL_I2C_IsDeviceReady  stm32f4xx_hal_i2c.o
    0x08002730   0x08002730   0x000001e0   Code   RO         1469    i.HAL_I2C_Master_Receive  stm32f4xx_hal_i2c.o
    0x08002910   0x08002910   0x0000012c   Code   RO         1476    i.HAL_I2C_Master_Transmit  stm32f4xx_hal_i2c.o
    0x08002a3c   0x08002a3c   0x000001f8   Code   RO         1481    i.HAL_I2C_Mem_Read  stm32f4xx_hal_i2c.o
    0x08002c34   0x08002c34   0x00000130   Code   RO         1484    i.HAL_I2C_Mem_Write  stm32f4xx_hal_i2c.o
    0x08002d64   0x08002d64   0x000000d8   Code   RO          400    i.HAL_I2C_MspInit   stm32f4xx_hal_msp.o
    0x08002e3c   0x08002e3c   0x00000010   Code   RO         3469    i.HAL_IncTick       stm32f4xx_hal.o
    0x08002e4c   0x08002e4c   0x00000034   Code   RO         3470    i.HAL_Init          stm32f4xx_hal.o
    0x08002e80   0x08002e80   0x00000040   Code   RO         3471    i.HAL_InitTick      stm32f4xx_hal.o
    0x08002ec0   0x08002ec0   0x00000030   Code   RO          401    i.HAL_MspInit       stm32f4xx_hal_msp.o
    0x08002ef0   0x08002ef0   0x0000001a   Code   RO         3320    i.HAL_NVIC_EnableIRQ  stm32f4xx_hal_cortex.o
    0x08002f0a   0x08002f0a   0x00000002   PAD
    0x08002f0c   0x08002f0c   0x00000040   Code   RO         3326    i.HAL_NVIC_SetPriority  stm32f4xx_hal_cortex.o
    0x08002f4c   0x08002f4c   0x00000024   Code   RO         3327    i.HAL_NVIC_SetPriorityGrouping  stm32f4xx_hal_cortex.o
    0x08002f70   0x08002f70   0x00000024   Code   RO         3328    i.HAL_NVIC_SystemReset  stm32f4xx_hal_cortex.o
    0x08002f94   0x08002f94   0x00000130   Code   RO         2577    i.HAL_RCC_ClockConfig  stm32f4xx_hal_rcc.o
    0x080030c4   0x080030c4   0x00000020   Code   RO         2584    i.HAL_RCC_GetPCLK1Freq  stm32f4xx_hal_rcc.o
    0x080030e4   0x080030e4   0x00000020   Code   RO         2585    i.HAL_RCC_GetPCLK2Freq  stm32f4xx_hal_rcc.o
    0x08003104   0x08003104   0x00000064   Code   RO         2586    i.HAL_RCC_GetSysClockFreq  stm32f4xx_hal_rcc.o
    0x08003168   0x08003168   0x0000031c   Code   RO         2589    i.HAL_RCC_OscConfig  stm32f4xx_hal_rcc.o
    0x08003484   0x08003484   0x00000006   Code   RO         1901    i.HAL_SPI_GetState  stm32f4xx_hal_spi.o
    0x0800348a   0x0800348a   0x00000080   Code   RO         1903    i.HAL_SPI_Init      stm32f4xx_hal_spi.o
    0x0800350a   0x0800350a   0x00000002   PAD
    0x0800350c   0x0800350c   0x000000e8   Code   RO          403    i.HAL_SPI_MspInit   stm32f4xx_hal_msp.o
    0x080035f4   0x080035f4   0x00000150   Code   RO         1906    i.HAL_SPI_Receive   stm32f4xx_hal_spi.o
    0x08003744   0x08003744   0x0000015c   Code   RO         1911    i.HAL_SPI_Transmit  stm32f4xx_hal_spi.o
    0x080038a0   0x080038a0   0x000001e2   Code   RO         1912    i.HAL_SPI_TransmitReceive  stm32f4xx_hal_spi.o
    0x08003a82   0x08003a82   0x00000002   Code   RO         3330    i.HAL_SYSTICK_Callback  stm32f4xx_hal_cortex.o
    0x08003a84   0x08003a84   0x00000028   Code   RO         3331    i.HAL_SYSTICK_Config  stm32f4xx_hal_cortex.o
    0x08003aac   0x08003aac   0x00000008   Code   RO         3332    i.HAL_SYSTICK_IRQHandler  stm32f4xx_hal_cortex.o
    0x08003ab4   0x08003ab4   0x00000002   Code   RO         2261    i.HAL_UART_AbortReceiveCpltCallback  stm32f4xx_hal_uart.o
    0x08003ab6   0x08003ab6   0x00000002   PAD
    0x08003ab8   0x08003ab8   0x0000005c   Code   RO         2262    i.HAL_UART_AbortReceive_IT  stm32f4xx_hal_uart.o
    0x08003b14   0x08003b14   0x00000002   Code   RO         2271    i.HAL_UART_ErrorCallback  stm32f4xx_hal_uart.o
    0x08003b16   0x08003b16   0x00000002   PAD
    0x08003b18   0x08003b18   0x00000110   Code   RO         2274    i.HAL_UART_IRQHandler  stm32f4xx_hal_uart.o
    0x08003c28   0x08003c28   0x00000062   Code   RO         2275    i.HAL_UART_Init     stm32f4xx_hal_uart.o
    0x08003c8a   0x08003c8a   0x00000002   PAD
    0x08003c8c   0x08003c8c   0x00000078   Code   RO          405    i.HAL_UART_MspInit  stm32f4xx_hal_msp.o
    0x08003d04   0x08003d04   0x00000052   Code   RO         2280    i.HAL_UART_Receive_IT  stm32f4xx_hal_uart.o
    0x08003d56   0x08003d56   0x00000002   Code   RO         2281    i.HAL_UART_RxCpltCallback  stm32f4xx_hal_uart.o
    0x08003d58   0x08003d58   0x000000ba   Code   RO         2283    i.HAL_UART_Transmit  stm32f4xx_hal_uart.o
    0x08003e12   0x08003e12   0x0000003e   Code   RO         2285    i.HAL_UART_Transmit_IT  stm32f4xx_hal_uart.o
    0x08003e50   0x08003e50   0x00000002   Code   RO         2286    i.HAL_UART_TxCpltCallback  stm32f4xx_hal_uart.o
    0x08003e52   0x08003e52   0x00000002   Code   RO          311    i.HardFault_Handler  stm32f4xx_it.o
    0x08003e54   0x08003e54   0x0000002e   Code   RO         1505    i.I2C_IsAcknowledgeFailed  stm32f4xx_hal_i2c.o
    0x08003e82   0x08003e82   0x000000d4   Code   RO         1508    i.I2C_MasterRequestRead  stm32f4xx_hal_i2c.o
    0x08003f56   0x08003f56   0x00000002   PAD
    0x08003f58   0x08003f58   0x00000088   Code   RO         1509    i.I2C_MasterRequestWrite  stm32f4xx_hal_i2c.o
    0x08003fe0   0x08003fe0   0x000000e6   Code   RO         1514    i.I2C_RequestMemoryRead  stm32f4xx_hal_i2c.o
    0x080040c6   0x080040c6   0x00000002   PAD
    0x080040c8   0x080040c8   0x00000094   Code   RO         1515    i.I2C_RequestMemoryWrite  stm32f4xx_hal_i2c.o
    0x0800415c   0x0800415c   0x0000004c   Code   RO         1518    i.I2C_WaitOnBTFFlagUntilTimeout  stm32f4xx_hal_i2c.o
    0x080041a8   0x080041a8   0x00000068   Code   RO         1519    i.I2C_WaitOnFlagUntilTimeout  stm32f4xx_hal_i2c.o
    0x08004210   0x08004210   0x00000096   Code   RO         1520    i.I2C_WaitOnMasterAddressFlagUntilTimeout  stm32f4xx_hal_i2c.o
    0x080042a6   0x080042a6   0x00000066   Code   RO         1521    i.I2C_WaitOnRXNEFlagUntilTimeout  stm32f4xx_hal_i2c.o
    0x0800430c   0x0800430c   0x0000004c   Code   RO         1522    i.I2C_WaitOnTXEFlagUntilTimeout  stm32f4xx_hal_i2c.o
    0x08004358   0x08004358   0x0000001c   Code   RO          277    i.MX_FATFS_Init     fatfs.o
    0x08004374   0x08004374   0x000000cc   Code   RO         1282    i.MX_GPIO_Init      edusat_system.o
    0x08004440   0x08004440   0x00000040   Code   RO         1283    i.MX_I2C1_Init      edusat_system.o
    0x08004480   0x08004480   0x00000040   Code   RO         1284    i.MX_I2C3_Init      edusat_system.o
    0x080044c0   0x080044c0   0x00000044   Code   RO         1285    i.MX_SPI2_Init      edusat_system.o
    0x08004504   0x08004504   0x00000044   Code   RO         1286    i.MX_SPI3_Init      edusat_system.o
    0x08004548   0x08004548   0x00000002   Code   RO          312    i.MemManage_Handler  stm32f4xx_it.o
    0x0800454a   0x0800454a   0x00000002   Code   RO          313    i.NMI_Handler       stm32f4xx_it.o
    0x0800454c   0x0800454c   0x00000038   Code   RO         1229    i.OpenAntennas      eps.o
    0x08004584   0x08004584   0x00000002   Code   RO          314    i.PendSV_Handler    stm32f4xx_it.o
    0x08004586   0x08004586   0x00000002   PAD
    0x08004588   0x08004588   0x00000020   Code   RO          315    i.SDTimer_Handler   stm32f4xx_it.o
    0x080045a8   0x080045a8   0x00000014   Code   RO         1108    i.SD_CloseFile      sdlibrary.o
    0x080045bc   0x080045bc   0x00000018   Code   RO         1109    i.SD_Deinit         sdlibrary.o
    0x080045d4   0x080045d4   0x0000008c   Code   RO         1110    i.SD_Init           sdlibrary.o
    0x08004660   0x08004660   0x000000a0   Code   RO         1002    i.SD_MPU6050_Init   sd_hal_mpu6050.o
    0x08004700   0x08004700   0x00000058   Code   RO         1003    i.SD_MPU6050_ReadAccelerometer  sd_hal_mpu6050.o
    0x08004758   0x08004758   0x00000058   Code   RO         1005    i.SD_MPU6050_ReadGyroscope  sd_hal_mpu6050.o
    0x080047b0   0x080047b0   0x000000a0   Code   RO         1008    i.SD_MPU6050_SetAccelerometer  sd_hal_mpu6050.o
    0x08004850   0x08004850   0x00000028   Code   RO         1009    i.SD_MPU6050_SetDataRate  sd_hal_mpu6050.o
    0x08004878   0x08004878   0x000000a0   Code   RO         1010    i.SD_MPU6050_SetGyroscope  sd_hal_mpu6050.o
    0x08004918   0x08004918   0x00000070   Code   RO         1011    i.SD_MPU6050_setBypass  sd_hal_mpu6050.o
    0x08004988   0x08004988   0x0000001c   Code   RO         1111    i.SD_OpenFile       sdlibrary.o
    0x080049a4   0x080049a4   0x00000070   Code   RO          822    i.SD_PowerOn        fatfs_sd.o
    0x08004a14   0x08004a14   0x000000c4   Code   RO         1112    i.SD_PrepareFile    sdlibrary.o
    0x08004ad8   0x08004ad8   0x0000006a   Code   RO         1113    i.SD_Read           sdlibrary.o
    0x08004b42   0x08004b42   0x00000002   PAD
    0x08004b44   0x08004b44   0x00000020   Code   RO          823    i.SD_ReadyWait      fatfs_sd.o
    0x08004b64   0x08004b64   0x00000050   Code   RO          824    i.SD_RxDataBlock    fatfs_sd.o
    0x08004bb4   0x08004bb4   0x0000006e   Code   RO          825    i.SD_SendCmd        fatfs_sd.o
    0x08004c22   0x08004c22   0x00000002   PAD
    0x08004c24   0x08004c24   0x0000006a   Code   RO          826    i.SD_TxDataBlock    fatfs_sd.o
    0x08004c8e   0x08004c8e   0x00000014   Code   RO         1114    i.SD_Write_Byte     sdlibrary.o
    0x08004ca2   0x08004ca2   0x00000020   Code   RO         1115    i.SD_Write_String   sdlibrary.o
    0x08004cc2   0x08004cc2   0x00000002   PAD
    0x08004cc4   0x08004cc4   0x00000138   Code   RO          827    i.SD_disk_initialize  fatfs_sd.o
    0x08004dfc   0x08004dfc   0x00000144   Code   RO          828    i.SD_disk_ioctl     fatfs_sd.o
    0x08004f40   0x08004f40   0x00000098   Code   RO          829    i.SD_disk_read      fatfs_sd.o
    0x08004fd8   0x08004fd8   0x00000010   Code   RO          830    i.SD_disk_status    fatfs_sd.o
    0x08004fe8   0x08004fe8   0x000000b8   Code   RO          831    i.SD_disk_write     fatfs_sd.o
    0x080050a0   0x080050a0   0x00000010   Code   RO          832    i.SELECT            fatfs_sd.o
    0x080050b0   0x080050b0   0x0000005c   Code   RO         1940    i.SPI_EndRxTransaction  stm32f4xx_hal_spi.o
    0x0800510c   0x0800510c   0x00000058   Code   RO         1941    i.SPI_EndRxTxTransaction  stm32f4xx_hal_spi.o
    0x08005164   0x08005164   0x00000034   Code   RO          833    i.SPI_RxByte        fatfs_sd.o
    0x08005198   0x08005198   0x00000020   Code   RO          834    i.SPI_TxByte        fatfs_sd.o
    0x080051b8   0x080051b8   0x00000094   Code   RO         1946    i.SPI_WaitFlagStateUntilTimeout  stm32f4xx_hal_spi.o
    0x0800524c   0x0800524c   0x00000002   Code   RO          316    i.SVC_Handler       stm32f4xx_it.o
    0x0800524e   0x0800524e   0x00000002   PAD
    0x08005250   0x08005250   0x0000003c   Code   RO         1287    i.SaveToSD          edusat_system.o
    0x0800528c   0x0800528c   0x00000010   Code   RO         1288    i.SendError         edusat_system.o
    0x0800529c   0x0800529c   0x00000034   Code   RO         1230    i.SetAntennaBurnDuration  eps.o
    0x080052d0   0x080052d0   0x00000034   Code   RO         1181    i.SetRW             adcs.o
    0x08005304   0x08005304   0x00000028   Code   RO          317    i.SysTick_Handler   stm32f4xx_it.o
    0x0800532c   0x0800532c   0x0000007c   Code   RO         1289    i.SystemClock_Config  edusat_system.o
    0x080053a8   0x080053a8   0x00000054   Code   RO         3706    i.SystemInit        system_stm32f4xx.o
    0x080053fc   0x080053fc   0x00000078   Code   RO         1290    i.TakePhoto         edusat_system.o
    0x08005474   0x08005474   0x00000020   Code   RO          318    i.UART4_IRQHandler  stm32f4xx_it.o
    0x08005494   0x08005494   0x00000010   Code   RO         2288    i.UART_DMAAbortOnError  stm32f4xx_hal_uart.o
    0x080054a4   0x080054a4   0x00000014   Code   RO         2293    i.UART_DMARxOnlyAbortCallback  stm32f4xx_hal_uart.o
    0x080054b8   0x080054b8   0x0000001c   Code   RO         2298    i.UART_EndRxTransfer  stm32f4xx_hal_uart.o
    0x080054d4   0x080054d4   0x00000096   Code   RO         2300    i.UART_Receive_IT   stm32f4xx_hal_uart.o
    0x0800556a   0x0800556a   0x00000002   PAD
    0x0800556c   0x0800556c   0x000002ac   Code   RO         2301    i.UART_SetConfig    stm32f4xx_hal_uart.o
    0x08005818   0x08005818   0x00000062   Code   RO         2302    i.UART_Transmit_IT  stm32f4xx_hal_uart.o
    0x0800587a   0x0800587a   0x00000064   Code   RO         2303    i.UART_WaitOnFlagUntilTimeout  stm32f4xx_hal_uart.o
    0x080058de   0x080058de   0x00000004   Code   RO          214    i.USER_initialize   user_diskio.o
    0x080058e2   0x080058e2   0x00000004   Code   RO          215    i.USER_ioctl        user_diskio.o
    0x080058e6   0x080058e6   0x00000004   Code   RO          216    i.USER_read         user_diskio.o
    0x080058ea   0x080058ea   0x00000004   Code   RO          217    i.USER_status       user_diskio.o
    0x080058ee   0x080058ee   0x00000004   Code   RO          218    i.USER_write        user_diskio.o
    0x080058f2   0x080058f2   0x00000002   Code   RO          319    i.UsageFault_Handler  stm32f4xx_it.o
    0x080058f4   0x080058f4   0x000000a4   Code   RO         1400    i.Use_BMP           edusat_sensors.o
    0x08005998   0x08005998   0x00000180   Code   RO         1401    i.Use_MPU           edusat_sensors.o
    0x08005b18   0x08005b18   0x00000058   Code   RO         1402    i.Use_Magneto       edusat_sensors.o
    0x08005b70   0x08005b70   0x00000028   Code   RO         4460    i.__0sprintf        mc_w.l(printfa.o)
    0x08005b98   0x08005b98   0x00000030   Code   RO         4524    i.__ARM_fpclassify  m_wm.l(fpclassify.o)
    0x08005bc8   0x08005bc8   0x00000020   Code   RO         3333    i.__NVIC_SetPriority  stm32f4xx_hal_cortex.o
    0x08005be8   0x08005be8   0x00000c50   Code   RO         4198    i.__hardfp_pow      m_wm.l(pow.o)
    0x08006838   0x08006838   0x000000f8   Code   RO         4526    i.__kernel_poly     m_wm.l(poly.o)
    0x08006930   0x08006930   0x00000030   Code   RO         4504    i.__mathlib_dbl_divzero  m_wm.l(dunder.o)
    0x08006960   0x08006960   0x00000014   Code   RO         4506    i.__mathlib_dbl_infnan2  m_wm.l(dunder.o)
    0x08006974   0x08006974   0x00000004   PAD
    0x08006978   0x08006978   0x00000020   Code   RO         4507    i.__mathlib_dbl_invalid  m_wm.l(dunder.o)
    0x08006998   0x08006998   0x00000020   Code   RO         4508    i.__mathlib_dbl_overflow  m_wm.l(dunder.o)
    0x080069b8   0x080069b8   0x00000020   Code   RO         4510    i.__mathlib_dbl_underflow  m_wm.l(dunder.o)
    0x080069d8   0x080069d8   0x0000000e   Code   RO         4594    i.__scatterload_copy  mc_w.l(handlers.o)
    0x080069e6   0x080069e6   0x00000002   Code   RO         4595    i.__scatterload_null  mc_w.l(handlers.o)
    0x080069e8   0x080069e8   0x0000000e   Code   RO         4596    i.__scatterload_zeroinit  mc_w.l(handlers.o)
    0x080069f6   0x080069f6   0x00000002   PAD
    0x080069f8   0x080069f8   0x0000000c   Code   RO         4568    i.__set_errno       mc_w.l(errno.o)
    0x08006a04   0x08006a04   0x00000184   Code   RO         4465    i._fp_digits        mc_w.l(printfa.o)
    0x08006b88   0x08006b88   0x000006dc   Code   RO         4466    i._printf_core      mc_w.l(printfa.o)
    0x08007264   0x08007264   0x00000024   Code   RO         4467    i._printf_post_padding  mc_w.l(printfa.o)
    0x08007288   0x08007288   0x0000002e   Code   RO         4468    i._printf_pre_padding  mc_w.l(printfa.o)
    0x080072b6   0x080072b6   0x0000000a   Code   RO         4470    i._sputc            mc_w.l(printfa.o)
    0x080072c0   0x080072c0   0x00000070   Code   RO         3783    i.check_fs          ff.o
    0x08007330   0x08007330   0x00000010   Code   RO         3784    i.chk_chr           ff.o
    0x08007340   0x08007340   0x0000005c   Code   RO         3785    i.chk_lock          ff.o
    0x0800739c   0x0800739c   0x00000020   Code   RO         3786    i.clear_lock        ff.o
    0x080073bc   0x080073bc   0x00000030   Code   RO         1291    i.clearbuffer       edusat_system.o
    0x080073ec   0x080073ec   0x00000026   Code   RO         3787    i.clmt_clust        ff.o
    0x08007412   0x08007412   0x00000018   Code   RO         3788    i.clust2sect        ff.o
    0x0800742a   0x0800742a   0x00000002   PAD
    0x0800742c   0x0800742c   0x00000080   Code   RO         3789    i.cmp_lfn           ff.o
    0x080074ac   0x080074ac   0x00000030   Code   RO         1292    i.convertToInt16    edusat_system.o
    0x080074dc   0x080074dc   0x000000a4   Code   RO         3790    i.create_chain      ff.o
    0x08007580   0x08007580   0x00000208   Code   RO         3791    i.create_name       ff.o
    0x08007788   0x08007788   0x00000034   Code   RO         3792    i.dec_lock          ff.o
    0x080077bc   0x080077bc   0x000000d0   Code   RO         3793    i.dir_find          ff.o
    0x0800788c   0x0800788c   0x00000102   Code   RO         3794    i.dir_next          ff.o
    0x0800798e   0x0800798e   0x00000002   PAD
    0x08007990   0x08007990   0x000001e4   Code   RO         3796    i.dir_register      ff.o
    0x08007b74   0x08007b74   0x0000008e   Code   RO         3798    i.dir_sdi           ff.o
    0x08007c02   0x08007c02   0x00000002   PAD
    0x08007c04   0x08007c04   0x00000028   Code   RO         3740    i.disk_initialize   diskio.o
    0x08007c2c   0x08007c2c   0x0000001c   Code   RO         3741    i.disk_ioctl        diskio.o
    0x08007c48   0x08007c48   0x0000001c   Code   RO         3742    i.disk_read         diskio.o
    0x08007c64   0x08007c64   0x00000018   Code   RO         3743    i.disk_status       diskio.o
    0x08007c7c   0x08007c7c   0x0000001c   Code   RO         3744    i.disk_write        diskio.o
    0x08007c98   0x08007c98   0x00000028   Code   RO         3799    i.f_close           ff.o
    0x08007cc0   0x08007cc0   0x000000d4   Code   RO         3801    i.f_getfree         ff.o
    0x08007d94   0x08007d94   0x00000048   Code   RO         3802    i.f_gets            ff.o
    0x08007ddc   0x08007ddc   0x00000058   Code   RO         3806    i.f_mount           ff.o
    0x08007e34   0x08007e34   0x0000021c   Code   RO         3807    i.f_open            ff.o
    0x08008050   0x08008050   0x0000001e   Code   RO         3810    i.f_putc            ff.o
    0x0800806e   0x0800806e   0x00000026   Code   RO         3811    i.f_puts            ff.o
    0x08008094   0x08008094   0x00000176   Code   RO         3812    i.f_read            ff.o
    0x0800820a   0x0800820a   0x0000008e   Code   RO         3816    i.f_sync            ff.o
    0x08008298   0x08008298   0x000001b2   Code   RO         3819    i.f_write           ff.o
    0x0800844a   0x0800844a   0x00000018   Code   RO         4520    i.fabs              m_wm.l(fabs.o)
    0x08008462   0x08008462   0x00000002   PAD
    0x08008464   0x08008464   0x00000038   Code   RO         4178    i.ff_convert        ccsbcs.o
    0x0800849c   0x0800849c   0x00000080   Code   RO         4179    i.ff_wtoupper       ccsbcs.o
    0x0800851c   0x0800851c   0x00000290   Code   RO         3820    i.find_volume       ff.o
    0x080087ac   0x080087ac   0x0000007a   Code   RO         3821    i.follow_path       ff.o
    0x08008826   0x08008826   0x00000002   PAD
    0x08008828   0x08008828   0x00000080   Code   RO         3822    i.gen_numname       ff.o
    0x080088a8   0x080088a8   0x00000024   Code   RO         1231    i.getEPSdata        eps.o
    0x080088cc   0x080088cc   0x00000024   Code   RO         1182    i.getLDRdata        adcs.o
    0x080088f0   0x080088f0   0x000000d8   Code   RO         1403    i.getSensorData     edusat_sensors.o
    0x080089c8   0x080089c8   0x000000e8   Code   RO         3823    i.get_fat           ff.o
    0x08008ab0   0x08008ab0   0x00000004   Code   RO          278    i.get_fattime       fatfs.o
    0x08008ab4   0x08008ab4   0x0000003c   Code   RO         3825    i.get_ldnumber      ff.o
    0x08008af0   0x08008af0   0x00000080   Code   RO         3826    i.inc_lock          ff.o
    0x08008b70   0x08008b70   0x00000026   Code   RO         3827    i.ld_clust          ff.o
    0x08008b96   0x08008b96   0x00000016   Code   RO         3828    i.ld_dword          ff.o
    0x08008bac   0x08008bac   0x0000000a   Code   RO         3829    i.ld_word           ff.o
    0x08008bb6   0x08008bb6   0x00000002   PAD
    0x08008bb8   0x08008bb8   0x00000268   Code   RO           13    i.main              main.o
    0x08008e20   0x08008e20   0x00000012   Code   RO         3830    i.mem_cpy           ff.o
    0x08008e32   0x08008e32   0x00000002   PAD
    0x08008e34   0x08008e34   0x0000000e   Code   RO         3831    i.mem_set           ff.o
    0x08008e42   0x08008e42   0x00000032   Code   RO         3832    i.move_window       ff.o
    0x08008e74   0x08008e74   0x00000016   Code   RO         1293    i.power             edusat_system.o
    0x08008e8a   0x08008e8a   0x00000124   Code   RO         3834    i.put_fat           ff.o
    0x08008fae   0x08008fae   0x0000003a   Code   RO         3835    i.putc_bfd          ff.o
    0x08008fe8   0x08008fe8   0x0000002a   Code   RO         3836    i.putc_flush        ff.o
    0x08009012   0x08009012   0x00000002   PAD
    0x08009014   0x08009014   0x0000001c   Code   RO          503    i.readI2CMaster     arducam.o
    0x08009030   0x08009030   0x00000020   Code   RO          504    i.readI2CMasterByte  arducam.o
    0x08009050   0x08009050   0x00000048   Code   RO          505    i.readSPImaster     arducam.o
    0x08009098   0x08009098   0x00000074   Code   RO         3837    i.remove_chain      ff.o
    0x0800910c   0x0800910c   0x0000006e   Code   RO         4531    i.sqrt              m_wm.l(sqrt.o)
    0x0800917a   0x0800917a   0x00000028   Code   RO         3838    i.st_clust          ff.o
    0x080091a2   0x080091a2   0x00000010   Code   RO         3839    i.st_dword          ff.o
    0x080091b2   0x080091b2   0x00000008   Code   RO         3840    i.st_word           ff.o
    0x080091ba   0x080091ba   0x0000001a   Code   RO         3841    i.sum_sfn           ff.o
    0x080091d4   0x080091d4   0x00000088   Code   RO         3842    i.sync_fs           ff.o
    0x0800925c   0x0800925c   0x00000052   Code   RO         3843    i.sync_window       ff.o
    0x080092ae   0x080092ae   0x00000034   Code   RO         3844    i.validate          ff.o
    0x080092e2   0x080092e2   0x00000002   PAD
    0x080092e4   0x080092e4   0x0000001c   Code   RO          506    i.writeI2CMaster    arducam.o
    0x08009300   0x08009300   0x00000024   Code   RO          507    i.writeI2CMasterByte  arducam.o
    0x08009324   0x08009324   0x00000038   Code   RO          508    i.writeSPImaster    arducam.o
    0x0800935c   0x0800935c   0x00000104   Data   RO          967    .constdata          ov5642_regs.o
    0x08009460   0x08009460   0x0000006c   Data   RO          969    .constdata          ov5642_regs.o
    0x080094cc   0x080094cc   0x0000006c   Data   RO          970    .constdata          ov5642_regs.o
    0x08009538   0x08009538   0x00000068   Data   RO          971    .constdata          ov5642_regs.o
    0x080095a0   0x080095a0   0x00000068   Data   RO          972    .constdata          ov5642_regs.o
    0x08009608   0x08009608   0x00000068   Data   RO          973    .constdata          ov5642_regs.o
    0x08009670   0x08009670   0x000000e8   Data   RO          974    .constdata          ov5642_regs.o
    0x08009758   0x08009758   0x00000068   Data   RO          975    .constdata          ov5642_regs.o
    0x080097c0   0x080097c0   0x00000920   Data   RO          976    .constdata          ov5642_regs.o
    0x0800a0e0   0x0800a0e0   0x0000000a   Data   RO         1232    .constdata          eps.o
    0x0800a0ea   0x0800a0ea   0x00000010   Data   RO         3707    .constdata          system_stm32f4xx.o
    0x0800a0fa   0x0800a0fa   0x00000008   Data   RO         3708    .constdata          system_stm32f4xx.o
    0x0800a102   0x0800a102   0x000000aa   Data   RO         3846    .constdata          ff.o
    0x0800a1ac   0x0800a1ac   0x000003ae   Data   RO         4180    .constdata          ccsbcs.o
    0x0800a55a   0x0800a55a   0x00000006   PAD
    0x0800a560   0x0800a560   0x00000088   Data   RO         4201    .constdata          m_wm.l(pow.o)
    0x0800a5e8   0x0800a5e8   0x00000008   Data   RO         4528    .constdata          m_wm.l(qnan.o)
    0x0800a5f0   0x0800a5f0   0x00000020   Data   RO         4592    Region$$Table       anon$$obj.o


    Execution Region RW_IRAM1 (Exec base: 0x20000000, Load base: 0x0800a610, Size: 0x00003c30, Max: 0x00020000, ABSOLUTE)

    Exec Addr    Load Addr    Size         Type   Attr      Idx    E Section Name        Object

    0x20000000   0x0800a610   0x0000000c   Data   RW           15    .data               main.o
    0x2000000c   0x0800a61c   0x00000014   Data   RW          219    .data               user_diskio.o
    0x20000020   0x0800a630   0x00000005   Data   RW          281    .data               fatfs.o
    0x20000025   0x0800a635   0x00000003   Data   RW          320    .data               stm32f4xx_it.o
    0x20000028   0x0800a638   0x00000020   Data   RW          770    .data               bmp085.o
    0x20000048   0x0800a658   0x00000003   Data   RW          835    .data               fatfs_sd.o
    0x2000004b   0x0800a65b   0x00000009   Data   RW          921    .data               hmc5883l.o
    0x20000054   0x0800a664   0x00000019   Data   RW         1183    .data               adcs.o
    0x2000006d   0x0800a67d   0x0000001a   Data   RW         1233    .data               eps.o
    0x20000087   0x0800a697   0x00000008   Data   RW         1295    .data               edusat_system.o
    0x2000008f   0x0800a69f   0x00000001   PAD
    0x20000090   0x0800a6a0   0x0000000c   Data   RW         3477    .data               stm32f4xx_hal.o
    0x2000009c   0x0800a6ac   0x00000004   Data   RW         3709    .data               system_stm32f4xx.o
    0x200000a0   0x0800a6b0   0x00000008   Data   RW         3847    .data               ff.o
    0x200000a8   0x0800a6b8   0x00000004   Data   RW         4569    .data               mc_w.l(errno.o)
    0x200000ac        -       0x0000008c   Zero   RW           14    .bss                main.o
    0x20000138        -       0x00000124   Zero   RW          509    .bss                arducam.o
    0x2000025c        -       0x0000001c   Zero   RW         1014    .bss                sd_hal_mpu6050.o
    0x20000278        -       0x00003170   Zero   RW         1116    .bss                sdlibrary.o
    0x200033e8        -       0x00000198   Zero   RW         1294    .bss                edusat_system.o
    0x20003580        -       0x0000007d   Zero   RW         1404    .bss                edusat_sensors.o
    0x200035fd   0x0800a6bc   0x00000003   PAD
    0x20003600        -       0x00000220   Zero   RW         3845    .bss                ff.o
    0x20003820        -       0x0000000c   Zero   RW         4132    .bss                ff_gen_drv.o
    0x2000382c   0x0800a6bc   0x00000004   PAD
    0x20003830        -       0x00000400   Zero   RW            1    STACK               startup_stm32f407xx.o


==============================================================================

Image component sizes


      Code (inc. data)   RO Data    RW Data    ZI Data      Debug   Object Name

       200         42          0         25          0       3292   adcs.o
      5088        208          0          0        292      32022   arducam.o
       662         26          0         32          0       5092   bmp085.o
       184         22        942          0          0       2343   ccsbcs.o
       148         22          0          0          0       3865   diskio.o
       852        184          0          0        125       3481   edusat_sensors.o
      1158        142          0          8        408      10947   edusat_system.o
       200         56         10         26          0       3115   eps.o
        32         10          0          5          0       1572   fatfs.o
      1544         62          0          3          0      10983   fatfs_sd.o
      6586        104        170          8        544      50313   ff.o
        70          6          0          0         12       1699   ff_gen_drv.o
       296         44          0          9          0       2850   hmc5883l.o
       616         92          0         12        140     679302   main.o
         0          0       3460          0          0       1761   ov5642_regs.o
       808         36          0          0         28       9559   sd_hal_mpu6050.o
       566         46          0          0      12656       6612   sdlibrary.o
        36          8        392          0       1024        856   startup_stm32f407xx.o
       180         28          0         12          0       4721   stm32f4xx_hal.o
       244         24          0          0          0      35874   stm32f4xx_hal_cortex.o
        36          0          0          0          0       1255   stm32f4xx_hal_dma.o
       456         44          0          0          0       3133   stm32f4xx_hal_gpio.o
      3584         78          0          0          0      18869   stm32f4xx_hal_i2c.o
       616         68          0          0          0       3489   stm32f4xx_hal_msp.o
      1264         80          0          0          0       5280   stm32f4xx_hal_rcc.o
      1628          8          0          0          0       9077   stm32f4xx_hal_spi.o
      1896         18          0          0          0      13371   stm32f4xx_hal_uart.o
       120         20          0          3          0       5988   stm32f4xx_it.o
         0          0          0          0          0        560   syscall.o
        84         18         24          4          0       1219   system_stm32f4xx.o
        20          0          0         20          0       5912   user_diskio.o

    ----------------------------------------------------------------------
     29228       1496       5036        168      15236     938412   Object Totals
         0          0         32          0          0          0   (incl. Generated)
        54          0          6          1          7          0   (incl. Padding)

    ----------------------------------------------------------------------

      Code (inc. data)   RO Data    RW Data    ZI Data      Debug   Library Member Name

       164         44          0          0          0        620   dunder.o
        24          0          0          0          0        124   fabs.o
        48          0          0          0          0        124   fpclassify.o
       248          0          0          0          0        152   poly.o
      3152        296        136          0          0        352   pow.o
         0          0          8          0          0          0   qnan.o
       110          0          0          0          0        148   sqrt.o
         0          0          0          0          0          0   entry.o
         0          0          0          0          0          0   entry10a.o
         0          0          0          0          0          0   entry11a.o
         8          4          0          0          0          0   entry2.o
         4          0          0          0          0          0   entry5.o
         0          0          0          0          0          0   entry7b.o
         0          0          0          0          0          0   entry8b.o
         8          4          0          0          0          0   entry9a.o
        12          6          0          4          0         68   errno.o
        30          0          0          0          0          0   handlers.o
        36          8          0          0          0         68   init.o
         0          0          0          0          0          0   iusefp.o
        30          0          0          0          0         68   llshl.o
        36          0          0          0          0         68   llsshr.o
        32          0          0          0          0         68   llushr.o
        36          0          0          0          0        108   memseta.o
      2276         86          0          0          0        520   printfa.o
        18          0          0          0          0         68   strcpy.o
        14          0          0          0          0         68   strlen.o
        30          0          0          0          0         80   strncmp.o
        44          0          0          0          0         80   uidiv.o
        98          0          0          0          0         92   uldiv.o
        48          0          0          0          0         68   cdcmple.o
        48          0          0          0          0         68   cdrcmple.o
        56          0          0          0          0         88   d2f.o
       334          0          0          0          0        148   dadd.o
       222          0          0          0          0        100   ddiv.o
       186          0          0          0          0        176   depilogue.o
        50          0          0          0          0         76   dfixui.o
        48          0          0          0          0         68   dfixul.o
        34          0          0          0          0         76   dflti.o
        26          0          0          0          0         76   dfltui.o
       228          0          0          0          0         96   dmul.o
        46          0          0          0          0         80   dscalb.o
       162          0          0          0          0        100   dsqrt.o
        38          0          0          0          0         68   f2d.o
       110          0          0          0          0        168   fepilogue.o

    ----------------------------------------------------------------------
      8104        448        144          4          0       4332   Library Totals
        10          0          0          0          0          0   (incl. Padding)

    ----------------------------------------------------------------------

      Code (inc. data)   RO Data    RW Data    ZI Data      Debug   Library Name

      3746        340        144          0          0       1520   m_wm.l
      2712        108          0          4          0       1356   mc_w.l
      1636          0          0          0          0       1456   mf_w.l

    ----------------------------------------------------------------------
      8104        448        144          4          0       4332   Library Totals

    ----------------------------------------------------------------------

==============================================================================


      Code (inc. data)   RO Data    RW Data    ZI Data      Debug   

     37332       1944       5180        172      15236     916240   Grand Totals
     37332       1944       5180        172      15236     916240   ELF Image Totals
     37332       1944       5180        172          0          0   ROM Totals

==============================================================================

    Total RO  Size (Code + RO Data)                42512 (  41.52kB)
    Total RW  Size (RW Data + ZI Data)             15408 (  15.05kB)
    Total ROM Size (Code + RO Data + RW Data)      42684 (  41.68kB)

==============================================================================

